{
  "address": "0x1C76F31BF9F1d356f5349c0d5B8cEEDD4a1dc567",
  "abi": [
    {
      "inputs": [
        {
          "internalType": "address",
          "name": "vestedToken",
          "type": "address"
        }
      ],
      "stateMutability": "payable",
      "type": "constructor"
    },
    {
      "anonymous": false,
      "inputs": [
        {
          "indexed": true,
          "internalType": "address",
          "name": "previousOwner",
          "type": "address"
        },
        {
          "indexed": true,
          "internalType": "address",
          "name": "newOwner",
          "type": "address"
        }
      ],
      "name": "OwnershipTransferred",
      "type": "event"
    },
    {
      "anonymous": false,
      "inputs": [
        {
          "indexed": true,
          "internalType": "address",
          "name": "beneficiary",
          "type": "address"
        },
        {
          "indexed": false,
          "internalType": "uint256",
          "name": "amount",
          "type": "uint256"
        },
        {
          "indexed": false,
          "internalType": "uint256",
          "name": "start",
          "type": "uint256"
        },
        {
          "indexed": false,
          "internalType": "uint256",
          "name": "duration",
          "type": "uint256"
        },
        {
          "indexed": false,
          "internalType": "uint256",
          "name": "bonusAmount",
          "type": "uint256"
        }
      ],
      "name": "Vested",
      "type": "event"
    },
    {
      "inputs": [
        {
          "internalType": "address",
          "name": "beneficiary",
          "type": "address"
        },
        {
          "internalType": "uint256",
          "name": "amount",
          "type": "uint256"
        },
        {
          "internalType": "uint256",
          "name": "start",
          "type": "uint256"
        },
        {
          "internalType": "uint256",
          "name": "duration",
          "type": "uint256"
        },
        {
          "internalType": "uint256",
          "name": "bonusAmount",
          "type": "uint256"
        }
      ],
      "name": "addClaim",
      "outputs": [],
      "stateMutability": "nonpayable",
      "type": "function"
    },
    {
      "inputs": [
        {
          "internalType": "address",
          "name": "account",
          "type": "address"
        }
      ],
      "name": "claim",
      "outputs": [],
      "stateMutability": "nonpayable",
      "type": "function"
    },
    {
      "inputs": [],
      "name": "owner",
      "outputs": [
        {
          "internalType": "address",
          "name": "",
          "type": "address"
        }
      ],
      "stateMutability": "view",
      "type": "function"
    },
    {
      "inputs": [],
      "name": "renounceOwnership",
      "outputs": [],
      "stateMutability": "nonpayable",
      "type": "function"
    },
    {
      "inputs": [
        {
          "internalType": "address",
          "name": "account",
          "type": "address"
        }
      ],
      "name": "totalsOf",
      "outputs": [
        {
          "components": [
            {
              "internalType": "uint256",
              "name": "coinsVested",
              "type": "uint256"
            },
            {
              "internalType": "uint256",
              "name": "coinsClaimable",
              "type": "uint256"
            },
            {
              "internalType": "uint256",
              "name": "coinsClaimed",
              "type": "uint256"
            },
            {
              "internalType": "uint256",
              "name": "bonusesTotal",
              "type": "uint256"
            },
            {
              "internalType": "uint256",
              "name": "bonusesClaimable",
              "type": "uint256"
            },
            {
              "internalType": "uint256",
              "name": "bonusesClaimed",
              "type": "uint256"
            }
          ],
          "internalType": "struct ERC20Vesting.Totals",
          "name": "",
          "type": "tuple"
        }
      ],
      "stateMutability": "view",
      "type": "function"
    },
    {
      "inputs": [
        {
          "internalType": "address",
          "name": "account",
          "type": "address"
        },
        {
          "internalType": "uint128",
          "name": "time",
          "type": "uint128"
        }
      ],
      "name": "totalsOfAt",
      "outputs": [
        {
          "components": [
            {
              "internalType": "uint256",
              "name": "coinsVested",
              "type": "uint256"
            },
            {
              "internalType": "uint256",
              "name": "coinsClaimable",
              "type": "uint256"
            },
            {
              "internalType": "uint256",
              "name": "coinsClaimed",
              "type": "uint256"
            },
            {
              "internalType": "uint256",
              "name": "bonusesTotal",
              "type": "uint256"
            },
            {
              "internalType": "uint256",
              "name": "bonusesClaimable",
              "type": "uint256"
            },
            {
              "internalType": "uint256",
              "name": "bonusesClaimed",
              "type": "uint256"
            }
          ],
          "internalType": "struct ERC20Vesting.Totals",
          "name": "",
          "type": "tuple"
        }
      ],
      "stateMutability": "view",
      "type": "function"
    },
    {
      "inputs": [
        {
          "internalType": "address",
          "name": "newOwner",
          "type": "address"
        }
      ],
      "name": "transferOwnership",
      "outputs": [],
      "stateMutability": "nonpayable",
      "type": "function"
    }
  ],
  "transactionHash": "0x80116a2eaa7f6587bb03efd13772b7117106f7f83224e2c09f062018090ed142",
  "args": [
    "0x8c6Df6381aFc9821977a17Fc7846e229B649dE04"
  ],
  "numDeployments": 2,
  "solcInputHash": "b762253db2b8a008d1957101b10538f1",
  "bytecode": "0x60806040526040516200186138038062001861833981810160405281019062000029919062000205565b60006200003b6200019360201b60201c565b9050806000806101000a81548173ffffffffffffffffffffffffffffffffffffffff021916908373ffffffffffffffffffffffffffffffffffffffff1602179055508073ffffffffffffffffffffffffffffffffffffffff16600073ffffffffffffffffffffffffffffffffffffffff167f8be0079c531659141344cd1fd0a4f28419497f9722a3daafe3b4186f6b6457e060405160405180910390a350600073ffffffffffffffffffffffffffffffffffffffff168173ffffffffffffffffffffffffffffffffffffffff16036200014b576040517f08c379a00000000000000000000000000000000000000000000000000000000081526004016200014290620002be565b60405180910390fd5b80600160006101000a81548173ffffffffffffffffffffffffffffffffffffffff021916908373ffffffffffffffffffffffffffffffffffffffff16021790555050620002e0565b600033905090565b600080fd5b600073ffffffffffffffffffffffffffffffffffffffff82169050919050565b6000620001cd82620001a0565b9050919050565b620001df81620001c0565b8114620001eb57600080fd5b50565b600081519050620001ff81620001d4565b92915050565b6000602082840312156200021e576200021d6200019b565b5b60006200022e84828501620001ee565b91505092915050565b600082825260208201905092915050565b7f455243323056657374696e673a2043616e6e6f7420757365203020616464726560008201527f73732061732076657374656420746f6b656e2e00000000000000000000000000602082015250565b6000620002a660338362000237565b9150620002b38262000248565b604082019050919050565b60006020820190508181036000830152620002d98162000297565b9050919050565b61157180620002f06000396000f3fe608060405234801561001057600080fd5b506004361061007d5760003560e01c8063427d74321161005b578063427d7432146100ea578063715018a61461011a5780638da5cb5b14610124578063f2fde38b146101425761007d565b80631e83409a1461008257806329891e9b1461009e57806339e84e35146100ce575b600080fd5b61009c60048036038101906100979190610d2b565b61015e565b005b6100b860048036038101906100b39190610da0565b610427565b6040516100c59190610e74565b60405180910390f35b6100e860048036038101906100e39190610ebb565b610441565b005b61010460048036038101906100ff9190610d2b565b610683565b6040516101119190610e74565b60405180910390f35b6101226106a3565b005b61012c6107dd565b6040516101399190610f45565b60405180910390f35b61015c60048036038101906101579190610d2b565b610806565b005b6101666109ae565b73ffffffffffffffffffffffffffffffffffffffff166101846107dd565b73ffffffffffffffffffffffffffffffffffffffff16146101da576040517f08c379a00000000000000000000000000000000000000000000000000000000081526004016101d190610fbd565b60405180910390fd5b60006101e5826109b6565b90506000816020015111806101fe575060008160800151115b61023d576040517f08c379a000000000000000000000000000000000000000000000000000000000815260040161023490611029565b60405180910390fd5b80604001518160200151118061025a57508060a001518160800151115b610299576040517f08c379a0000000000000000000000000000000000000000000000000000000008152600401610290906110bb565b60405180910390fd5b60008160a0015182608001516102af919061110a565b90506000826040015183602001516102c7919061110a565b905080600460008673ffffffffffffffffffffffffffffffffffffffff1673ffffffffffffffffffffffffffffffffffffffff1681526020019081526020016000206000828254610318919061113e565b9250508190555081600360008673ffffffffffffffffffffffffffffffffffffffff1673ffffffffffffffffffffffffffffffffffffffff168152602001908152602001600020600082825461036e919061113e565b92505081905550600160009054906101000a900473ffffffffffffffffffffffffffffffffffffffff1673ffffffffffffffffffffffffffffffffffffffff1663a9059cbb8584846103c0919061113e565b6040518363ffffffff1660e01b81526004016103dd929190611181565b6020604051808303816000875af11580156103fc573d6000803e3d6000fd5b505050506040513d601f19601f8201168201806040525081019061042091906111e2565b5050505050565b61042f610c92565b61043983836109d6565b905092915050565b6104496109ae565b73ffffffffffffffffffffffffffffffffffffffff166104676107dd565b73ffffffffffffffffffffffffffffffffffffffff16146104bd576040517f08c379a00000000000000000000000000000000000000000000000000000000081526004016104b490610fbd565b60405180910390fd5b60008411610500576040517f08c379a00000000000000000000000000000000000000000000000000000000081526004016104f790611281565b60405180910390fd5b600073ffffffffffffffffffffffffffffffffffffffff168573ffffffffffffffffffffffffffffffffffffffff160361056f576040517f08c379a000000000000000000000000000000000000000000000000000000000815260040161056690611313565b60405180910390fd5b6000600260008773ffffffffffffffffffffffffffffffffffffffff1673ffffffffffffffffffffffffffffffffffffffff16815260200190815260200160002090508060405180608001604052808781526020018681526020018581526020018481525090806001815401808255809150506001900390600052602060002090600402016000909190919091506000820151816000015560208201518160010155604082015181600201556060820151816003015550508573ffffffffffffffffffffffffffffffffffffffff167f941cbd834819010c51a7ba64d08be10e66647609622f7b32c3e81db19fdb0387868686866040516106739493929190611333565b60405180910390a2505050505050565b61068b610c92565b61069c82610697610c8a565b6109d6565b9050919050565b6106ab6109ae565b73ffffffffffffffffffffffffffffffffffffffff166106c96107dd565b73ffffffffffffffffffffffffffffffffffffffff161461071f576040517f08c379a000000000000000000000000000000000000000000000000000000000815260040161071690610fbd565b60405180910390fd5b600073ffffffffffffffffffffffffffffffffffffffff1660008054906101000a900473ffffffffffffffffffffffffffffffffffffffff1673ffffffffffffffffffffffffffffffffffffffff167f8be0079c531659141344cd1fd0a4f28419497f9722a3daafe3b4186f6b6457e060405160405180910390a360008060006101000a81548173ffffffffffffffffffffffffffffffffffffffff021916908373ffffffffffffffffffffffffffffffffffffffff160217905550565b60008060009054906101000a900473ffffffffffffffffffffffffffffffffffffffff16905090565b61080e6109ae565b73ffffffffffffffffffffffffffffffffffffffff1661082c6107dd565b73ffffffffffffffffffffffffffffffffffffffff1614610882576040517f08c379a000000000000000000000000000000000000000000000000000000000815260040161087990610fbd565b60405180910390fd5b600073ffffffffffffffffffffffffffffffffffffffff168173ffffffffffffffffffffffffffffffffffffffff16036108f1576040517f08c379a00000000000000000000000000000000000000000000000000000000081526004016108e8906113ea565b60405180910390fd5b8073ffffffffffffffffffffffffffffffffffffffff1660008054906101000a900473ffffffffffffffffffffffffffffffffffffffff1673ffffffffffffffffffffffffffffffffffffffff167f8be0079c531659141344cd1fd0a4f28419497f9722a3daafe3b4186f6b6457e060405160405180910390a3806000806101000a81548173ffffffffffffffffffffffffffffffffffffffff021916908373ffffffffffffffffffffffffffffffffffffffff16021790555050565b600033905090565b6109be610c92565b6109cf826109ca610c8a565b6109d6565b9050919050565b6109de610c92565b6000600360008573ffffffffffffffffffffffffffffffffffffffff1673ffffffffffffffffffffffffffffffffffffffff1681526020019081526020016000205490506000600460008673ffffffffffffffffffffffffffffffffffffffff1673ffffffffffffffffffffffffffffffffffffffff16815260200190815260200160002054905060008060008060005b600260008b73ffffffffffffffffffffffffffffffffffffffff1673ffffffffffffffffffffffffffffffffffffffff16815260200190815260200160002080549050811015610c4e576000600260008c73ffffffffffffffffffffffffffffffffffffffff1673ffffffffffffffffffffffffffffffffffffffff1681526020019081526020016000208281548110610b0c57610b0b61140a565b5b9060005260206000209060040201604051806080016040529081600082015481526020016001820154815260200160028201548152602001600382015481525050905080604001518160200151610b63919061113e565b8a6fffffffffffffffffffffffffffffffff1610610ba457806000015183610b8b919061113e565b9250806060015185610b9d919061113e565b9450610c28565b80602001518a6fffffffffffffffffffffffffffffffff1610610c2757806000015184610bd1919061113e565b93506000816040015182602001518c6fffffffffffffffffffffffffffffffff16610bfc919061110a565b8360600151610c0b9190611439565b610c1591906114c2565b90508086610c23919061113e565b9550505b5b806060015186610c38919061113e565b9550508080610c46906114f3565b915050610a6f565b506040518060c0016040528083815260200182815260200186815260200185815260200184815260200187815250965050505050505092915050565b600042905090565b6040518060c001604052806000815260200160008152602001600081526020016000815260200160008152602001600081525090565b600080fd5b600073ffffffffffffffffffffffffffffffffffffffff82169050919050565b6000610cf882610ccd565b9050919050565b610d0881610ced565b8114610d1357600080fd5b50565b600081359050610d2581610cff565b92915050565b600060208284031215610d4157610d40610cc8565b5b6000610d4f84828501610d16565b91505092915050565b60006fffffffffffffffffffffffffffffffff82169050919050565b610d7d81610d58565b8114610d8857600080fd5b50565b600081359050610d9a81610d74565b92915050565b60008060408385031215610db757610db6610cc8565b5b6000610dc585828601610d16565b9250506020610dd685828601610d8b565b9150509250929050565b6000819050919050565b610df381610de0565b82525050565b60c082016000820151610e0f6000850182610dea565b506020820151610e226020850182610dea565b506040820151610e356040850182610dea565b506060820151610e486060850182610dea565b506080820151610e5b6080850182610dea565b5060a0820151610e6e60a0850182610dea565b50505050565b600060c082019050610e896000830184610df9565b92915050565b610e9881610de0565b8114610ea357600080fd5b50565b600081359050610eb581610e8f565b92915050565b600080600080600060a08688031215610ed757610ed6610cc8565b5b6000610ee588828901610d16565b9550506020610ef688828901610ea6565b9450506040610f0788828901610ea6565b9350506060610f1888828901610ea6565b9250506080610f2988828901610ea6565b9150509295509295909350565b610f3f81610ced565b82525050565b6000602082019050610f5a6000830184610f36565b92915050565b600082825260208201905092915050565b7f4f776e61626c653a2063616c6c6572206973206e6f7420746865206f776e6572600082015250565b6000610fa7602083610f60565b9150610fb282610f71565b602082019050919050565b60006020820190508181036000830152610fd681610f9a565b9050919050565b7f455243323056657374696e673a204e6f7468696e6720746f20636c61696d2e00600082015250565b6000611013601f83610f60565b915061101e82610fdd565b602082019050919050565b6000602082019050818103600083015261104281611006565b9050919050565b7f455243323056657374696e673a20416c726561647920636c61696d656420657660008201527f6572797468696e672e0000000000000000000000000000000000000000000000602082015250565b60006110a5602983610f60565b91506110b082611049565b604082019050919050565b600060208201905081810360008301526110d481611098565b9050919050565b7f4e487b7100000000000000000000000000000000000000000000000000000000600052601160045260246000fd5b600061111582610de0565b915061112083610de0565b9250828203905081811115611138576111376110db565b5b92915050565b600061114982610de0565b915061115483610de0565b925082820190508082111561116c5761116b6110db565b5b92915050565b61117b81610de0565b82525050565b60006040820190506111966000830185610f36565b6111a36020830184611172565b9392505050565b60008115159050919050565b6111bf816111aa565b81146111ca57600080fd5b50565b6000815190506111dc816111b6565b92915050565b6000602082840312156111f8576111f7610cc8565b5b6000611206848285016111cd565b91505092915050565b7f455243323056657374696e673a20416d6f756e7420766573746564206d75737460008201527f206265206c6172676572207468616e20302e0000000000000000000000000000602082015250565b600061126b603283610f60565b91506112768261120f565b604082019050919050565b6000602082019050818103600083015261129a8161125e565b9050919050565b7f455243323056657374696e673a205a65726f20616464726573732063616e6e6f60008201527f742062652062656e65666963696172792e000000000000000000000000000000602082015250565b60006112fd603183610f60565b9150611308826112a1565b604082019050919050565b6000602082019050818103600083015261132c816112f0565b9050919050565b60006080820190506113486000830187611172565b6113556020830186611172565b6113626040830185611172565b61136f6060830184611172565b95945050505050565b7f4f776e61626c653a206e6577206f776e657220697320746865207a65726f206160008201527f6464726573730000000000000000000000000000000000000000000000000000602082015250565b60006113d4602683610f60565b91506113df82611378565b604082019050919050565b60006020820190508181036000830152611403816113c7565b9050919050565b7f4e487b7100000000000000000000000000000000000000000000000000000000600052603260045260246000fd5b600061144482610de0565b915061144f83610de0565b9250817fffffffffffffffffffffffffffffffffffffffffffffffffffffffffffffffff0483118215151615611488576114876110db565b5b828202905092915050565b7f4e487b7100000000000000000000000000000000000000000000000000000000600052601260045260246000fd5b60006114cd82610de0565b91506114d883610de0565b9250826114e8576114e7611493565b5b828204905092915050565b60006114fe82610de0565b91507fffffffffffffffffffffffffffffffffffffffffffffffffffffffffffffffff82036115305761152f6110db565b5b60018201905091905056fea264697066735822122031c26e92d912f937f6ec40ce9cb6906458e95fcbfc77f9bbfef8df91ee618eb064736f6c63430008100033",
  "devdoc": {
    "kind": "dev",
    "methods": {
      "owner()": {
        "details": "Returns the address of the current owner."
      },
      "renounceOwnership()": {
        "details": "Leaves the contract without owner. It will not be possible to call `onlyOwner` functions anymore. Can only be called by the current owner. NOTE: Renouncing ownership will leave the contract without an owner, thereby removing any functionality that is only available to the owner."
      },
      "transferOwnership(address)": {
        "details": "Transfers ownership of the contract to a new account (`newOwner`). Can only be called by the current owner."
      }
    },
    "version": 1
  },
  "userdoc": {
    "kind": "user",
    "methods": {},
    "version": 1
  },
  "storageLayout": {
    "storage": [
      {
        "astId": 435,
        "contract": "contracts/ERC20Vesting.sol:ERC20Vesting",
        "label": "_owner",
        "offset": 0,
        "slot": "0",
        "type": "t_address"
      },
      {
        "astId": 48,
        "contract": "contracts/ERC20Vesting.sol:ERC20Vesting",
        "label": "_token",
        "offset": 0,
        "slot": "1",
        "type": "t_address"
      },
      {
        "astId": 54,
        "contract": "contracts/ERC20Vesting.sol:ERC20Vesting",
        "label": "_vestings",
        "offset": 0,
        "slot": "2",
        "type": "t_mapping(t_address,t_array(t_struct(Vesting)29_storage)dyn_storage)"
      },
      {
        "astId": 58,
        "contract": "contracts/ERC20Vesting.sol:ERC20Vesting",
        "label": "_bonusesClaimed",
        "offset": 0,
        "slot": "3",
        "type": "t_mapping(t_address,t_uint256)"
      },
      {
        "astId": 62,
        "contract": "contracts/ERC20Vesting.sol:ERC20Vesting",
        "label": "_coinsClaimed",
        "offset": 0,
        "slot": "4",
        "type": "t_mapping(t_address,t_uint256)"
      }
    ],
    "types": {
      "t_address": {
        "encoding": "inplace",
        "label": "address",
        "numberOfBytes": "20"
      },
      "t_array(t_struct(Vesting)29_storage)dyn_storage": {
        "base": "t_struct(Vesting)29_storage",
        "encoding": "dynamic_array",
        "label": "struct ERC20Vesting.Vesting[]",
        "numberOfBytes": "32"
      },
      "t_mapping(t_address,t_array(t_struct(Vesting)29_storage)dyn_storage)": {
        "encoding": "mapping",
        "key": "t_address",
        "label": "mapping(address => struct ERC20Vesting.Vesting[])",
        "numberOfBytes": "32",
        "value": "t_array(t_struct(Vesting)29_storage)dyn_storage"
      },
      "t_mapping(t_address,t_uint256)": {
        "encoding": "mapping",
        "key": "t_address",
        "label": "mapping(address => uint256)",
        "numberOfBytes": "32",
        "value": "t_uint256"
      },
      "t_struct(Vesting)29_storage": {
        "encoding": "inplace",
        "label": "struct ERC20Vesting.Vesting",
        "members": [
          {
            "astId": 22,
            "contract": "contracts/ERC20Vesting.sol:ERC20Vesting",
            "label": "amount",
            "offset": 0,
            "slot": "0",
            "type": "t_uint256"
          },
          {
            "astId": 24,
            "contract": "contracts/ERC20Vesting.sol:ERC20Vesting",
            "label": "start",
            "offset": 0,
            "slot": "1",
            "type": "t_uint256"
          },
          {
            "astId": 26,
            "contract": "contracts/ERC20Vesting.sol:ERC20Vesting",
            "label": "duration",
            "offset": 0,
            "slot": "2",
            "type": "t_uint256"
          },
          {
            "astId": 28,
            "contract": "contracts/ERC20Vesting.sol:ERC20Vesting",
            "label": "bonusAmount",
            "offset": 0,
            "slot": "3",
            "type": "t_uint256"
          }
        ],
        "numberOfBytes": "128"
      },
      "t_uint256": {
        "encoding": "inplace",
        "label": "uint256",
        "numberOfBytes": "32"
      }
    }
  }
}