{
  "address": "0x523520cd6a382bCc81BA43BCeeB431C8a60f85F9",
  "abi": [
    {
      "inputs": [
        {
          "internalType": "address",
          "name": "vestedToken",
          "type": "address"
        }
      ],
      "stateMutability": "payable",
      "type": "constructor"
    },
    {
      "anonymous": false,
      "inputs": [
        {
          "indexed": true,
          "internalType": "address",
          "name": "beneficiary",
          "type": "address"
        },
        {
          "indexed": false,
          "internalType": "uint256",
          "name": "amount",
          "type": "uint256"
        }
      ],
      "name": "AllClaimed",
      "type": "event"
    },
    {
      "anonymous": false,
      "inputs": [
        {
          "indexed": true,
          "internalType": "address",
          "name": "beneficiary",
          "type": "address"
        },
        {
          "indexed": false,
          "internalType": "uint256",
          "name": "amount",
          "type": "uint256"
        }
      ],
      "name": "BonusesClaimed",
      "type": "event"
    },
    {
      "anonymous": false,
      "inputs": [
        {
          "indexed": true,
          "internalType": "address",
          "name": "previousOwner",
          "type": "address"
        },
        {
          "indexed": true,
          "internalType": "address",
          "name": "newOwner",
          "type": "address"
        }
      ],
      "name": "OwnershipTransferred",
      "type": "event"
    },
    {
      "anonymous": false,
      "inputs": [
        {
          "indexed": true,
          "internalType": "address",
          "name": "beneficiary",
          "type": "address"
        },
        {
          "indexed": false,
          "internalType": "uint256",
          "name": "amount",
          "type": "uint256"
        },
        {
          "indexed": false,
          "internalType": "uint256",
          "name": "start",
          "type": "uint256"
        },
        {
          "indexed": false,
          "internalType": "uint256",
          "name": "duration",
          "type": "uint256"
        },
        {
          "indexed": false,
          "internalType": "uint256",
          "name": "bonusAmount",
          "type": "uint256"
        }
      ],
      "name": "Vested",
      "type": "event"
    },
    {
      "inputs": [
        {
          "internalType": "address",
          "name": "beneficiary",
          "type": "address"
        },
        {
          "internalType": "uint256",
          "name": "amount",
          "type": "uint256"
        },
        {
          "internalType": "uint256",
          "name": "start",
          "type": "uint256"
        },
        {
          "internalType": "uint256",
          "name": "duration",
          "type": "uint256"
        },
        {
          "internalType": "uint256",
          "name": "bonusAmount",
          "type": "uint256"
        }
      ],
      "name": "addClaim",
      "outputs": [],
      "stateMutability": "nonpayable",
      "type": "function"
    },
    {
      "inputs": [
        {
          "internalType": "address",
          "name": "account",
          "type": "address"
        }
      ],
      "name": "claimAll",
      "outputs": [],
      "stateMutability": "nonpayable",
      "type": "function"
    },
    {
      "inputs": [
        {
          "internalType": "address",
          "name": "account",
          "type": "address"
        }
      ],
      "name": "claimBonuses",
      "outputs": [],
      "stateMutability": "nonpayable",
      "type": "function"
    },
    {
      "inputs": [],
      "name": "owner",
      "outputs": [
        {
          "internalType": "address",
          "name": "",
          "type": "address"
        }
      ],
      "stateMutability": "view",
      "type": "function"
    },
    {
      "inputs": [],
      "name": "renounceOwnership",
      "outputs": [],
      "stateMutability": "nonpayable",
      "type": "function"
    },
    {
      "inputs": [
        {
          "internalType": "address",
          "name": "account",
          "type": "address"
        }
      ],
      "name": "totalsOf",
      "outputs": [
        {
          "components": [
            {
              "internalType": "uint256",
              "name": "coinsTotal",
              "type": "uint256"
            },
            {
              "internalType": "uint256",
              "name": "coinsAvailable",
              "type": "uint256"
            },
            {
              "internalType": "uint256",
              "name": "coinsClaimed",
              "type": "uint256"
            },
            {
              "internalType": "uint256",
              "name": "bonusesTotal",
              "type": "uint256"
            },
            {
              "internalType": "uint256",
              "name": "bonusesAvailable",
              "type": "uint256"
            },
            {
              "internalType": "uint256",
              "name": "bonusesClaimed",
              "type": "uint256"
            }
          ],
          "internalType": "struct ERC20Vesting.Totals",
          "name": "",
          "type": "tuple"
        }
      ],
      "stateMutability": "view",
      "type": "function"
    },
    {
      "inputs": [
        {
          "internalType": "address",
          "name": "account",
          "type": "address"
        },
        {
          "internalType": "uint128",
          "name": "time",
          "type": "uint128"
        }
      ],
      "name": "totalsOfAt",
      "outputs": [
        {
          "components": [
            {
              "internalType": "uint256",
              "name": "coinsTotal",
              "type": "uint256"
            },
            {
              "internalType": "uint256",
              "name": "coinsAvailable",
              "type": "uint256"
            },
            {
              "internalType": "uint256",
              "name": "coinsClaimed",
              "type": "uint256"
            },
            {
              "internalType": "uint256",
              "name": "bonusesTotal",
              "type": "uint256"
            },
            {
              "internalType": "uint256",
              "name": "bonusesAvailable",
              "type": "uint256"
            },
            {
              "internalType": "uint256",
              "name": "bonusesClaimed",
              "type": "uint256"
            }
          ],
          "internalType": "struct ERC20Vesting.Totals",
          "name": "",
          "type": "tuple"
        }
      ],
      "stateMutability": "view",
      "type": "function"
    },
    {
      "inputs": [
        {
          "internalType": "address",
          "name": "newOwner",
          "type": "address"
        }
      ],
      "name": "transferOwnership",
      "outputs": [],
      "stateMutability": "nonpayable",
      "type": "function"
    }
  ],
  "transactionHash": "0x3a7c6f7685ba69f4c7f901ae0de5a78b127c8192261182a829aed209db898ed5",
  "args": [
    "0x8c6Df6381aFc9821977a17Fc7846e229B649dE04"
  ],
  "numDeployments": 3,
  "solcInputHash": "e537536dfccc5d07400728665af20294",
  "bytecode": "0x608060405260405162001ba638038062001ba6833981810160405281019062000029919062000205565b60006200003b6200019360201b60201c565b9050806000806101000a81548173ffffffffffffffffffffffffffffffffffffffff021916908373ffffffffffffffffffffffffffffffffffffffff1602179055508073ffffffffffffffffffffffffffffffffffffffff16600073ffffffffffffffffffffffffffffffffffffffff167f8be0079c531659141344cd1fd0a4f28419497f9722a3daafe3b4186f6b6457e060405160405180910390a350600073ffffffffffffffffffffffffffffffffffffffff168173ffffffffffffffffffffffffffffffffffffffff16036200014b576040517f08c379a00000000000000000000000000000000000000000000000000000000081526004016200014290620002be565b60405180910390fd5b80600160006101000a81548173ffffffffffffffffffffffffffffffffffffffff021916908373ffffffffffffffffffffffffffffffffffffffff16021790555050620002e0565b600033905090565b600080fd5b600073ffffffffffffffffffffffffffffffffffffffff82169050919050565b6000620001cd82620001a0565b9050919050565b620001df81620001c0565b8114620001eb57600080fd5b50565b600081519050620001ff81620001d4565b92915050565b6000602082840312156200021e576200021d6200019b565b5b60006200022e84828501620001ee565b91505092915050565b600082825260208201905092915050565b7f455243323056657374696e673a2043616e6e6f7420757365203020616464726560008201527f73732061732076657374656420746f6b656e2e00000000000000000000000000602082015250565b6000620002a660338362000237565b9150620002b38262000248565b604082019050919050565b60006020820190508181036000830152620002d98162000297565b9050919050565b6118b680620002f06000396000f3fe608060405234801561001057600080fd5b50600436106100885760003560e01c806377329f351161005b57806377329f35146101135780638da5cb5b1461012f57806392a5d7b21461014d578063f2fde38b1461016957610088565b806329891e9b1461008d57806339e84e35146100bd578063427d7432146100d9578063715018a614610109575b600080fd5b6100a760048036038101906100a29190611023565b610185565b6040516100b491906110f7565b60405180910390f35b6100d760048036038101906100d2919061113e565b61019f565b005b6100f360048036038101906100ee91906111b9565b6103e1565b60405161010091906110f7565b60405180910390f35b610111610401565b005b61012d600480360381019061012891906111b9565b61053b565b005b610137610858565b60405161014491906111f5565b60405180910390f35b610167600480360381019061016291906111b9565b610881565b005b610183600480360381019061017e91906111b9565b610ab6565b005b61018d610f42565b6101978383610c5e565b905092915050565b6101a7610f12565b73ffffffffffffffffffffffffffffffffffffffff166101c5610858565b73ffffffffffffffffffffffffffffffffffffffff161461021b576040517f08c379a00000000000000000000000000000000000000000000000000000000081526004016102129061126d565b60405180910390fd5b6000841161025e576040517f08c379a0000000000000000000000000000000000000000000000000000000008152600401610255906112ff565b60405180910390fd5b600073ffffffffffffffffffffffffffffffffffffffff168573ffffffffffffffffffffffffffffffffffffffff16036102cd576040517f08c379a00000000000000000000000000000000000000000000000000000000081526004016102c490611391565b60405180910390fd5b6000600260008773ffffffffffffffffffffffffffffffffffffffff1673ffffffffffffffffffffffffffffffffffffffff16815260200190815260200160002090508060405180608001604052808781526020018681526020018581526020018481525090806001815401808255809150506001900390600052602060002090600402016000909190919091506000820151816000015560208201518160010155604082015181600201556060820151816003015550508573ffffffffffffffffffffffffffffffffffffffff167f941cbd834819010c51a7ba64d08be10e66647609622f7b32c3e81db19fdb0387868686866040516103d194939291906113c0565b60405180910390a2505050505050565b6103e9610f42565b6103fa826103f5610f1a565b610c5e565b9050919050565b610409610f12565b73ffffffffffffffffffffffffffffffffffffffff16610427610858565b73ffffffffffffffffffffffffffffffffffffffff161461047d576040517f08c379a00000000000000000000000000000000000000000000000000000000081526004016104749061126d565b60405180910390fd5b600073ffffffffffffffffffffffffffffffffffffffff1660008054906101000a900473ffffffffffffffffffffffffffffffffffffffff1673ffffffffffffffffffffffffffffffffffffffff167f8be0079c531659141344cd1fd0a4f28419497f9722a3daafe3b4186f6b6457e060405160405180910390a360008060006101000a81548173ffffffffffffffffffffffffffffffffffffffff021916908373ffffffffffffffffffffffffffffffffffffffff160217905550565b610543610f12565b73ffffffffffffffffffffffffffffffffffffffff16610561610858565b73ffffffffffffffffffffffffffffffffffffffff16146105b7576040517f08c379a00000000000000000000000000000000000000000000000000000000081526004016105ae9061126d565b60405180910390fd5b60006105c282610f22565b90506000816020015111806105db575060008160800151115b61061a576040517f08c379a000000000000000000000000000000000000000000000000000000000815260040161061190611451565b60405180910390fd5b80604001518160200151118061063757508060a001518160800151115b610676576040517f08c379a000000000000000000000000000000000000000000000000000000000815260040161066d906114e3565b60405180910390fd5b60008160a00151826080015161068c9190611532565b90506000826040015183602001516106a49190611532565b905080600460008673ffffffffffffffffffffffffffffffffffffffff1673ffffffffffffffffffffffffffffffffffffffff16815260200190815260200160002060008282546106f59190611566565b9250508190555081600360008673ffffffffffffffffffffffffffffffffffffffff1673ffffffffffffffffffffffffffffffffffffffff168152602001908152602001600020600082825461074b9190611566565b92505081905550600082826107609190611566565b9050600160009054906101000a900473ffffffffffffffffffffffffffffffffffffffff1673ffffffffffffffffffffffffffffffffffffffff1663a9059cbb86836040518363ffffffff1660e01b81526004016107bf92919061159a565b6020604051808303816000875af11580156107de573d6000803e3d6000fd5b505050506040513d601f19601f8201168201806040525081019061080291906115fb565b508473ffffffffffffffffffffffffffffffffffffffff167f18dd7fb484f1242f10dd10c959828c1ea7de1344b54f4d1f8c1b548b412bf754826040516108499190611628565b60405180910390a25050505050565b60008060009054906101000a900473ffffffffffffffffffffffffffffffffffffffff16905090565b610889610f12565b73ffffffffffffffffffffffffffffffffffffffff166108a7610858565b73ffffffffffffffffffffffffffffffffffffffff16146108fd576040517f08c379a00000000000000000000000000000000000000000000000000000000081526004016108f49061126d565b60405180910390fd5b600061090882610f22565b90508060a00151816080015111610954576040517f08c379a000000000000000000000000000000000000000000000000000000000815260040161094b906116b5565b60405180910390fd5b60008160a00151826080015161096a9190611532565b905080600360008573ffffffffffffffffffffffffffffffffffffffff1673ffffffffffffffffffffffffffffffffffffffff16815260200190815260200160002060008282546109bb9190611566565b92505081905550600160009054906101000a900473ffffffffffffffffffffffffffffffffffffffff1673ffffffffffffffffffffffffffffffffffffffff1663a9059cbb84836040518363ffffffff1660e01b8152600401610a1f92919061159a565b6020604051808303816000875af1158015610a3e573d6000803e3d6000fd5b505050506040513d601f19601f82011682018060405250810190610a6291906115fb565b508273ffffffffffffffffffffffffffffffffffffffff167f6488a19fb98088d0a9fe223eb69d12263382f5422ebcc2e826441cb21d7b928a82604051610aa99190611628565b60405180910390a2505050565b610abe610f12565b73ffffffffffffffffffffffffffffffffffffffff16610adc610858565b73ffffffffffffffffffffffffffffffffffffffff1614610b32576040517f08c379a0000000000000000000000000000000000000000000000000000000008152600401610b299061126d565b60405180910390fd5b600073ffffffffffffffffffffffffffffffffffffffff168173ffffffffffffffffffffffffffffffffffffffff1603610ba1576040517f08c379a0000000000000000000000000000000000000000000000000000000008152600401610b9890611747565b60405180910390fd5b8073ffffffffffffffffffffffffffffffffffffffff1660008054906101000a900473ffffffffffffffffffffffffffffffffffffffff1673ffffffffffffffffffffffffffffffffffffffff167f8be0079c531659141344cd1fd0a4f28419497f9722a3daafe3b4186f6b6457e060405160405180910390a3806000806101000a81548173ffffffffffffffffffffffffffffffffffffffff021916908373ffffffffffffffffffffffffffffffffffffffff16021790555050565b610c66610f42565b60008060008060005b600260008973ffffffffffffffffffffffffffffffffffffffff1673ffffffffffffffffffffffffffffffffffffffff16815260200190815260200160002080549050811015610e4e576000600260008a73ffffffffffffffffffffffffffffffffffffffff1673ffffffffffffffffffffffffffffffffffffffff1681526020019081526020016000208281548110610d0c57610d0b611767565b5b9060005260206000209060040201604051806080016040529081600082015481526020016001820154815260200160028201548152602001600382015481525050905080604001518160200151610d639190611566565b886fffffffffffffffffffffffffffffffff1610610da457806000015183610d8b9190611566565b9250806060015185610d9d9190611566565b9450610e16565b8060200151886fffffffffffffffffffffffffffffffff1610610e15576000816040015182602001518a6fffffffffffffffffffffffffffffffff16610dea9190611532565b8360600151610df99190611796565b610e039190611807565b90508086610e119190611566565b9550505b5b806000015184610e269190611566565b9350806060015186610e389190611566565b9550508080610e4690611838565b915050610c6f565b506000600360008973ffffffffffffffffffffffffffffffffffffffff1673ffffffffffffffffffffffffffffffffffffffff1681526020019081526020016000205490506000600460008a73ffffffffffffffffffffffffffffffffffffffff1673ffffffffffffffffffffffffffffffffffffffff1681526020019081526020016000205490506040518060c0016040528085815260200184815260200182815260200187815260200186815260200183815250965050505050505092915050565b600033905090565b600042905090565b610f2a610f42565b610f3b82610f36610f1a565b610c5e565b9050919050565b6040518060c001604052806000815260200160008152602001600081526020016000815260200160008152602001600081525090565b600080fd5b600073ffffffffffffffffffffffffffffffffffffffff82169050919050565b6000610fa882610f7d565b9050919050565b610fb881610f9d565b8114610fc357600080fd5b50565b600081359050610fd581610faf565b92915050565b60006fffffffffffffffffffffffffffffffff82169050919050565b61100081610fdb565b811461100b57600080fd5b50565b60008135905061101d81610ff7565b92915050565b6000806040838503121561103a57611039610f78565b5b600061104885828601610fc6565b92505060206110598582860161100e565b9150509250929050565b6000819050919050565b61107681611063565b82525050565b60c082016000820151611092600085018261106d565b5060208201516110a5602085018261106d565b5060408201516110b8604085018261106d565b5060608201516110cb606085018261106d565b5060808201516110de608085018261106d565b5060a08201516110f160a085018261106d565b50505050565b600060c08201905061110c600083018461107c565b92915050565b61111b81611063565b811461112657600080fd5b50565b60008135905061113881611112565b92915050565b600080600080600060a0868803121561115a57611159610f78565b5b600061116888828901610fc6565b955050602061117988828901611129565b945050604061118a88828901611129565b935050606061119b88828901611129565b92505060806111ac88828901611129565b9150509295509295909350565b6000602082840312156111cf576111ce610f78565b5b60006111dd84828501610fc6565b91505092915050565b6111ef81610f9d565b82525050565b600060208201905061120a60008301846111e6565b92915050565b600082825260208201905092915050565b7f4f776e61626c653a2063616c6c6572206973206e6f7420746865206f776e6572600082015250565b6000611257602083611210565b915061126282611221565b602082019050919050565b600060208201905081810360008301526112868161124a565b9050919050565b7f455243323056657374696e673a20416d6f756e7420766573746564206d75737460008201527f206265206c6172676572207468616e20302e0000000000000000000000000000602082015250565b60006112e9603283611210565b91506112f48261128d565b604082019050919050565b60006020820190508181036000830152611318816112dc565b9050919050565b7f455243323056657374696e673a205a65726f20616464726573732063616e6e6f60008201527f742062652062656e65666963696172792e000000000000000000000000000000602082015250565b600061137b603183611210565b91506113868261131f565b604082019050919050565b600060208201905081810360008301526113aa8161136e565b9050919050565b6113ba81611063565b82525050565b60006080820190506113d560008301876113b1565b6113e260208301866113b1565b6113ef60408301856113b1565b6113fc60608301846113b1565b95945050505050565b7f455243323056657374696e673a204e6f7468696e6720746f20636c61696d2e00600082015250565b600061143b601f83611210565b915061144682611405565b602082019050919050565b6000602082019050818103600083015261146a8161142e565b9050919050565b7f455243323056657374696e673a20416c726561647920636c61696d656420657660008201527f6572797468696e672e0000000000000000000000000000000000000000000000602082015250565b60006114cd602983611210565b91506114d882611471565b604082019050919050565b600060208201905081810360008301526114fc816114c0565b9050919050565b7f4e487b7100000000000000000000000000000000000000000000000000000000600052601160045260246000fd5b600061153d82611063565b915061154883611063565b92508282039050818111156115605761155f611503565b5b92915050565b600061157182611063565b915061157c83611063565b925082820190508082111561159457611593611503565b5b92915050565b60006040820190506115af60008301856111e6565b6115bc60208301846113b1565b9392505050565b60008115159050919050565b6115d8816115c3565b81146115e357600080fd5b50565b6000815190506115f5816115cf565b92915050565b60006020828403121561161157611610610f78565b5b600061161f848285016115e6565b91505092915050565b600060208201905061163d60008301846113b1565b92915050565b7f455243323056657374696e673a20416c726561647920636c61696d656420616c60008201527f6c20626f6e757365732e00000000000000000000000000000000000000000000602082015250565b600061169f602a83611210565b91506116aa82611643565b604082019050919050565b600060208201905081810360008301526116ce81611692565b9050919050565b7f4f776e61626c653a206e6577206f776e657220697320746865207a65726f206160008201527f6464726573730000000000000000000000000000000000000000000000000000602082015250565b6000611731602683611210565b915061173c826116d5565b604082019050919050565b6000602082019050818103600083015261176081611724565b9050919050565b7f4e487b7100000000000000000000000000000000000000000000000000000000600052603260045260246000fd5b60006117a182611063565b91506117ac83611063565b92508282026117ba81611063565b915082820484148315176117d1576117d0611503565b5b5092915050565b7f4e487b7100000000000000000000000000000000000000000000000000000000600052601260045260246000fd5b600061181282611063565b915061181d83611063565b92508261182d5761182c6117d8565b5b828204905092915050565b600061184382611063565b91507fffffffffffffffffffffffffffffffffffffffffffffffffffffffffffffffff820361187557611874611503565b5b60018201905091905056fea264697066735822122018b7e645b2e9679859d2b81307e6690a53f2a67fc19412271c69fed5a56667f364736f6c63430008110033",
  "devdoc": {
    "kind": "dev",
    "methods": {
      "owner()": {
        "details": "Returns the address of the current owner."
      },
      "renounceOwnership()": {
        "details": "Leaves the contract without owner. It will not be possible to call `onlyOwner` functions anymore. Can only be called by the current owner. NOTE: Renouncing ownership will leave the contract without an owner, thereby removing any functionality that is only available to the owner."
      },
      "transferOwnership(address)": {
        "details": "Transfers ownership of the contract to a new account (`newOwner`). Can only be called by the current owner."
      }
    },
    "version": 1
  },
  "userdoc": {
    "kind": "user",
    "methods": {},
    "version": 1
  },
  "storageLayout": {
    "storage": [
      {
        "astId": 552,
        "contract": "contracts/ERC20Vesting.sol:ERC20Vesting",
        "label": "_owner",
        "offset": 0,
        "slot": "0",
        "type": "t_address"
      },
      {
        "astId": 60,
        "contract": "contracts/ERC20Vesting.sol:ERC20Vesting",
        "label": "_token",
        "offset": 0,
        "slot": "1",
        "type": "t_address"
      },
      {
        "astId": 66,
        "contract": "contracts/ERC20Vesting.sol:ERC20Vesting",
        "label": "_vestings",
        "offset": 0,
        "slot": "2",
        "type": "t_mapping(t_address,t_array(t_struct(Vesting)41_storage)dyn_storage)"
      },
      {
        "astId": 70,
        "contract": "contracts/ERC20Vesting.sol:ERC20Vesting",
        "label": "_bonusesClaimed",
        "offset": 0,
        "slot": "3",
        "type": "t_mapping(t_address,t_uint256)"
      },
      {
        "astId": 74,
        "contract": "contracts/ERC20Vesting.sol:ERC20Vesting",
        "label": "_coinsClaimed",
        "offset": 0,
        "slot": "4",
        "type": "t_mapping(t_address,t_uint256)"
      }
    ],
    "types": {
      "t_address": {
        "encoding": "inplace",
        "label": "address",
        "numberOfBytes": "20"
      },
      "t_array(t_struct(Vesting)41_storage)dyn_storage": {
        "base": "t_struct(Vesting)41_storage",
        "encoding": "dynamic_array",
        "label": "struct ERC20Vesting.Vesting[]",
        "numberOfBytes": "32"
      },
      "t_mapping(t_address,t_array(t_struct(Vesting)41_storage)dyn_storage)": {
        "encoding": "mapping",
        "key": "t_address",
        "label": "mapping(address => struct ERC20Vesting.Vesting[])",
        "numberOfBytes": "32",
        "value": "t_array(t_struct(Vesting)41_storage)dyn_storage"
      },
      "t_mapping(t_address,t_uint256)": {
        "encoding": "mapping",
        "key": "t_address",
        "label": "mapping(address => uint256)",
        "numberOfBytes": "32",
        "value": "t_uint256"
      },
      "t_struct(Vesting)41_storage": {
        "encoding": "inplace",
        "label": "struct ERC20Vesting.Vesting",
        "members": [
          {
            "astId": 34,
            "contract": "contracts/ERC20Vesting.sol:ERC20Vesting",
            "label": "amount",
            "offset": 0,
            "slot": "0",
            "type": "t_uint256"
          },
          {
            "astId": 36,
            "contract": "contracts/ERC20Vesting.sol:ERC20Vesting",
            "label": "start",
            "offset": 0,
            "slot": "1",
            "type": "t_uint256"
          },
          {
            "astId": 38,
            "contract": "contracts/ERC20Vesting.sol:ERC20Vesting",
            "label": "duration",
            "offset": 0,
            "slot": "2",
            "type": "t_uint256"
          },
          {
            "astId": 40,
            "contract": "contracts/ERC20Vesting.sol:ERC20Vesting",
            "label": "bonusAmount",
            "offset": 0,
            "slot": "3",
            "type": "t_uint256"
          }
        ],
        "numberOfBytes": "128"
      },
      "t_uint256": {
        "encoding": "inplace",
        "label": "uint256",
        "numberOfBytes": "32"
      }
    }
  }
}