{
  "address": "0xa1420a8b662cCF644a426adA5aDE4C4D41C2A4b1",
  "abi": [
    {
      "inputs": [
        {
          "internalType": "string",
          "name": "name",
          "type": "string"
        },
        {
          "internalType": "string",
          "name": "symbol",
          "type": "string"
        },
        {
          "internalType": "uint256",
          "name": "totalSupply",
          "type": "uint256"
        },
        {
          "internalType": "uint256[]",
          "name": "vestingDays",
          "type": "uint256[]"
        },
        {
          "internalType": "uint256[]",
          "name": "vestingBasisPoints",
          "type": "uint256[]"
        }
      ],
      "stateMutability": "payable",
      "type": "constructor"
    },
    {
      "anonymous": false,
      "inputs": [
        {
          "indexed": true,
          "internalType": "address",
          "name": "owner",
          "type": "address"
        },
        {
          "indexed": true,
          "internalType": "address",
          "name": "spender",
          "type": "address"
        },
        {
          "indexed": false,
          "internalType": "uint256",
          "name": "value",
          "type": "uint256"
        }
      ],
      "name": "Approval",
      "type": "event"
    },
    {
      "anonymous": false,
      "inputs": [
        {
          "indexed": true,
          "internalType": "address",
          "name": "previousOwner",
          "type": "address"
        },
        {
          "indexed": true,
          "internalType": "address",
          "name": "newOwner",
          "type": "address"
        }
      ],
      "name": "OwnershipTransferred",
      "type": "event"
    },
    {
      "anonymous": false,
      "inputs": [
        {
          "indexed": true,
          "internalType": "address",
          "name": "from",
          "type": "address"
        },
        {
          "indexed": true,
          "internalType": "address",
          "name": "to",
          "type": "address"
        },
        {
          "indexed": false,
          "internalType": "uint256",
          "name": "value",
          "type": "uint256"
        }
      ],
      "name": "Transfer",
      "type": "event"
    },
    {
      "anonymous": false,
      "inputs": [
        {
          "indexed": true,
          "internalType": "address",
          "name": "recipient",
          "type": "address"
        },
        {
          "indexed": false,
          "internalType": "uint256",
          "name": "value",
          "type": "uint256"
        },
        {
          "indexed": false,
          "internalType": "uint256",
          "name": "startDate",
          "type": "uint256"
        }
      ],
      "name": "Vesting",
      "type": "event"
    },
    {
      "inputs": [
        {
          "internalType": "address",
          "name": "owner",
          "type": "address"
        },
        {
          "internalType": "address",
          "name": "spender",
          "type": "address"
        }
      ],
      "name": "allowance",
      "outputs": [
        {
          "internalType": "uint256",
          "name": "",
          "type": "uint256"
        }
      ],
      "stateMutability": "view",
      "type": "function"
    },
    {
      "inputs": [
        {
          "internalType": "address",
          "name": "spender",
          "type": "address"
        },
        {
          "internalType": "uint256",
          "name": "amount",
          "type": "uint256"
        }
      ],
      "name": "approve",
      "outputs": [
        {
          "internalType": "bool",
          "name": "",
          "type": "bool"
        }
      ],
      "stateMutability": "nonpayable",
      "type": "function"
    },
    {
      "inputs": [
        {
          "internalType": "address",
          "name": "account",
          "type": "address"
        }
      ],
      "name": "balanceOf",
      "outputs": [
        {
          "internalType": "uint256",
          "name": "",
          "type": "uint256"
        }
      ],
      "stateMutability": "view",
      "type": "function"
    },
    {
      "inputs": [],
      "name": "decimals",
      "outputs": [
        {
          "internalType": "uint8",
          "name": "",
          "type": "uint8"
        }
      ],
      "stateMutability": "view",
      "type": "function"
    },
    {
      "inputs": [
        {
          "internalType": "address",
          "name": "spender",
          "type": "address"
        },
        {
          "internalType": "uint256",
          "name": "subtractedValue",
          "type": "uint256"
        }
      ],
      "name": "decreaseAllowance",
      "outputs": [
        {
          "internalType": "bool",
          "name": "",
          "type": "bool"
        }
      ],
      "stateMutability": "nonpayable",
      "type": "function"
    },
    {
      "inputs": [
        {
          "internalType": "address",
          "name": "spender",
          "type": "address"
        },
        {
          "internalType": "uint256",
          "name": "addedValue",
          "type": "uint256"
        }
      ],
      "name": "increaseAllowance",
      "outputs": [
        {
          "internalType": "bool",
          "name": "",
          "type": "bool"
        }
      ],
      "stateMutability": "nonpayable",
      "type": "function"
    },
    {
      "inputs": [],
      "name": "name",
      "outputs": [
        {
          "internalType": "string",
          "name": "",
          "type": "string"
        }
      ],
      "stateMutability": "view",
      "type": "function"
    },
    {
      "inputs": [],
      "name": "owner",
      "outputs": [
        {
          "internalType": "address",
          "name": "",
          "type": "address"
        }
      ],
      "stateMutability": "view",
      "type": "function"
    },
    {
      "inputs": [],
      "name": "renounceOwnership",
      "outputs": [],
      "stateMutability": "nonpayable",
      "type": "function"
    },
    {
      "inputs": [],
      "name": "symbol",
      "outputs": [
        {
          "internalType": "string",
          "name": "",
          "type": "string"
        }
      ],
      "stateMutability": "view",
      "type": "function"
    },
    {
      "inputs": [],
      "name": "today",
      "outputs": [
        {
          "internalType": "uint128",
          "name": "",
          "type": "uint128"
        }
      ],
      "stateMutability": "view",
      "type": "function"
    },
    {
      "inputs": [
        {
          "internalType": "address",
          "name": "account",
          "type": "address"
        }
      ],
      "name": "totalBalanceOf",
      "outputs": [
        {
          "internalType": "uint256",
          "name": "",
          "type": "uint256"
        }
      ],
      "stateMutability": "view",
      "type": "function"
    },
    {
      "inputs": [],
      "name": "totalSupply",
      "outputs": [
        {
          "internalType": "uint256",
          "name": "",
          "type": "uint256"
        }
      ],
      "stateMutability": "view",
      "type": "function"
    },
    {
      "inputs": [
        {
          "internalType": "address",
          "name": "recipient",
          "type": "address"
        },
        {
          "internalType": "uint256",
          "name": "amount",
          "type": "uint256"
        }
      ],
      "name": "transfer",
      "outputs": [
        {
          "internalType": "bool",
          "name": "",
          "type": "bool"
        }
      ],
      "stateMutability": "nonpayable",
      "type": "function"
    },
    {
      "inputs": [
        {
          "internalType": "address",
          "name": "sender",
          "type": "address"
        },
        {
          "internalType": "address",
          "name": "recipient",
          "type": "address"
        },
        {
          "internalType": "uint256",
          "name": "amount",
          "type": "uint256"
        }
      ],
      "name": "transferFrom",
      "outputs": [
        {
          "internalType": "bool",
          "name": "",
          "type": "bool"
        }
      ],
      "stateMutability": "nonpayable",
      "type": "function"
    },
    {
      "inputs": [
        {
          "internalType": "address",
          "name": "newOwner",
          "type": "address"
        }
      ],
      "name": "transferOwnership",
      "outputs": [],
      "stateMutability": "nonpayable",
      "type": "function"
    },
    {
      "inputs": [
        {
          "internalType": "address",
          "name": "recipient",
          "type": "address"
        },
        {
          "internalType": "uint256",
          "name": "amount",
          "type": "uint256"
        },
        {
          "internalType": "uint256",
          "name": "startDate",
          "type": "uint256"
        }
      ],
      "name": "transferVested",
      "outputs": [],
      "stateMutability": "nonpayable",
      "type": "function"
    }
  ],
  "transactionHash": "0xb20a991138e3a366beb1ad99e0f3424d07fceca74f75d8be07bbae7fa66b7554",
  "args": [
    "Mondo Community Coin",
    "MNDCC",
    "180000000000000000000000000",
    [
      2592000,
      5184000,
      7776000,
      10368000,
      12960000,
      15552000,
      18144000,
      20736000,
      23328000,
      25920000,
      28512000,
      31104000,
      33696000,
      36288000,
      38880000,
      41472000,
      44064000,
      46656000,
      49248000,
      51840000,
      54432000,
      57024000,
      59616000,
      62208000,
      64800000,
      67392000,
      69984000,
      72576000,
      75168000,
      77760000
    ],
    [
      0,
      50,
      100,
      150,
      200,
      250,
      300,
      350,
      400,
      450,
      500,
      550,
      600,
      650,
      700,
      750,
      800,
      850,
      900,
      950,
      1000,
      2000,
      3000,
      4000,
      5000,
      6000,
      7000,
      8000,
      9000,
      10000
    ]
  ],
  "solcInputHash": "d296e2f00f6bfc1b00ed4f4cbd0cd9cc",
  "bytecode": "0x60806040526040516200389538038062003895833981810160405281019062000029919062000b02565b8484816003908051906020019062000043929190620008d5565b5080600490805190602001906200005c929190620008d5565b505050600062000071620001b560201b60201c565b905080600560006101000a81548173ffffffffffffffffffffffffffffffffffffffff021916908373ffffffffffffffffffffffffffffffffffffffff1602179055508073ffffffffffffffffffffffffffffffffffffffff16600073ffffffffffffffffffffffffffffffffffffffff167f8be0079c531659141344cd1fd0a4f28419497f9722a3daafe3b4186f6b6457e060405160405180910390a350805182511462000157576040517f08c379a00000000000000000000000000000000000000000000000000000000081526004016200014e9062000cb7565b60405180910390fd5b620001786200016b620001bd60201b60201c565b84620001e760201b60201c565b81600690805190602001906200019092919062000966565b508060079080519060200190620001a992919062000966565b50505050505062001211565b600033905090565b6000600560009054906101000a900473ffffffffffffffffffffffffffffffffffffffff16905090565b600073ffffffffffffffffffffffffffffffffffffffff168273ffffffffffffffffffffffffffffffffffffffff1614156200025a576040517f08c379a0000000000000000000000000000000000000000000000000000000008152600401620002519062000cfb565b60405180910390fd5b6200026e600083836200034c60201b60201c565b806002600082825462000282919062000dd9565b92505081905550806000808473ffffffffffffffffffffffffffffffffffffffff1673ffffffffffffffffffffffffffffffffffffffff1681526020019081526020016000206000828254620002d9919062000dd9565b925050819055508173ffffffffffffffffffffffffffffffffffffffff16600073ffffffffffffffffffffffffffffffffffffffff167fddf252ad1be2c89b69c2b068fc378daa952ba7f163c4a11628f55a4df523b3ef8360405162000340919062000d1d565b60405180910390a35050565b620003648383836200049160201b62000cee1760201c565b600073ffffffffffffffffffffffffffffffffffffffff168373ffffffffffffffffffffffffffffffffffffffff1614156200042f57620003aa620001b560201b60201c565b73ffffffffffffffffffffffffffffffffffffffff16620003d0620001bd60201b60201c565b73ffffffffffffffffffffffffffffffffffffffff161462000429576040517f08c379a0000000000000000000000000000000000000000000000000000000008152600401620004209062000c95565b60405180910390fd5b6200048c565b600062000442846200049660201b60201c565b9050818110156200048a576040517f08c379a0000000000000000000000000000000000000000000000000000000008152600401620004819062000cd9565b60405180910390fd5b505b505050565b505050565b600080600860008473ffffffffffffffffffffffffffffffffffffffff1673ffffffffffffffffffffffffffffffffffffffff16815260200190815260200160002060405180604001604052908160008201548152602001600182015481525050905060006200050c846200066360201b60201c565b9050600082600001511115620006585760006200056b8360200151620005376200068260201b60201c565b6fffffffffffffffffffffffffffffffff1662000555919062000ecf565b60066200068a60201b62000cf31790919060201c565b90506006805490508110156200064c57600060078281548110620005b8577f4e487b7100000000000000000000000000000000000000000000000000000000600052603260045260246000fd5b90600052602060002001549050600062000600612710620005ec848860000151620007ce60201b62000e191790919060201c565b620007e660201b62000e2f1790919060201c565b9050600062000622828760000151620007fe60201b62000e451790919060201c565b90506200063e8186620007fe60201b62000e451790919060201c565b96505050505050506200065e565b8193505050506200065e565b80925050505b919050565b60006200067b826200081660201b62000e5b1760201c565b9050919050565b600042905090565b60008083805490501415620006a35760009050620007c8565b600080848054905090505b8082101562000741576000620006d083836200085e60201b62000ea31760201c565b9050848682815481106200070d577f4e487b7100000000000000000000000000000000000000000000000000000000600052603260045260246000fd5b9060005260206000200154111562000728578091506200073a565b60018162000737919062000dd9565b92505b50620006ae565b600082118015620007a3575083856001846200075e919062000ecf565b8154811062000796577f4e487b7100000000000000000000000000000000000000000000000000000000600052603260045260246000fd5b9060005260206000200154145b15620007c257600182620007b8919062000ecf565b92505050620007c8565b81925050505b92915050565b60008183620007de919062000e6e565b905092915050565b60008183620007f6919062000e36565b905092915050565b600081836200080e919062000ecf565b905092915050565b60008060008373ffffffffffffffffffffffffffffffffffffffff1673ffffffffffffffffffffffffffffffffffffffff168152602001908152602001600020549050919050565b60006002808362000870919062000fb6565b6002856200087f919062000fb6565b6200088b919062000dd9565b62000897919062000e36565b600283620008a6919062000e36565b600285620008b5919062000e36565b620008c1919062000dd9565b620008cd919062000dd9565b905092915050565b828054620008e39062000f4a565b90600052602060002090601f01602090048101928262000907576000855562000953565b82601f106200092257805160ff191683800117855562000953565b8280016001018555821562000953579182015b828111156200095257825182559160200191906001019062000935565b5b509050620009629190620009b8565b5090565b828054828255906000526020600020908101928215620009a5579160200282015b82811115620009a457825182559160200191906001019062000987565b5b509050620009b49190620009b8565b5090565b5b80821115620009d3576000816000905550600101620009b9565b5090565b6000620009ee620009e88462000d63565b62000d3a565b9050808382526020820190508285602086028201111562000a0e57600080fd5b60005b8581101562000a42578162000a27888262000aeb565b84526020840193506020830192505060018101905062000a11565b5050509392505050565b600062000a6362000a5d8462000d92565b62000d3a565b90508281526020810184848401111562000a7c57600080fd5b62000a8984828562000f14565b509392505050565b600082601f83011262000aa357600080fd5b815162000ab5848260208601620009d7565b91505092915050565b600082601f83011262000ad057600080fd5b815162000ae284826020860162000a4c565b91505092915050565b60008151905062000afc81620011f7565b92915050565b600080600080600060a0868803121562000b1b57600080fd5b600086015167ffffffffffffffff81111562000b3657600080fd5b62000b448882890162000abe565b955050602086015167ffffffffffffffff81111562000b6257600080fd5b62000b708882890162000abe565b945050604062000b838882890162000aeb565b935050606086015167ffffffffffffffff81111562000ba157600080fd5b62000baf8882890162000a91565b925050608086015167ffffffffffffffff81111562000bcd57600080fd5b62000bdb8882890162000a91565b9150509295509295909350565b600062000bf760328362000dc8565b915062000c0482620010bb565b604082019050919050565b600062000c1e60468362000dc8565b915062000c2b826200110a565b606082019050919050565b600062000c45602c8362000dc8565b915062000c52826200117f565b604082019050919050565b600062000c6c601f8362000dc8565b915062000c7982620011ce565b602082019050919050565b62000c8f8162000f0a565b82525050565b6000602082019050818103600083015262000cb08162000be8565b9050919050565b6000602082019050818103600083015262000cd28162000c0f565b9050919050565b6000602082019050818103600083015262000cf48162000c36565b9050919050565b6000602082019050818103600083015262000d168162000c5d565b9050919050565b600060208201905062000d34600083018462000c84565b92915050565b600062000d4662000d59565b905062000d54828262000f80565b919050565b6000604051905090565b600067ffffffffffffffff82111562000d815762000d806200107b565b5b602082029050602081019050919050565b600067ffffffffffffffff82111562000db05762000daf6200107b565b5b62000dbb82620010aa565b9050602081019050919050565b600082825260208201905092915050565b600062000de68262000f0a565b915062000df38362000f0a565b9250827fffffffffffffffffffffffffffffffffffffffffffffffffffffffffffffffff0382111562000e2b5762000e2a62000fee565b5b828201905092915050565b600062000e438262000f0a565b915062000e508362000f0a565b92508262000e635762000e626200101d565b5b828204905092915050565b600062000e7b8262000f0a565b915062000e888362000f0a565b9250817fffffffffffffffffffffffffffffffffffffffffffffffffffffffffffffffff048311821515161562000ec45762000ec362000fee565b5b828202905092915050565b600062000edc8262000f0a565b915062000ee98362000f0a565b92508282101562000eff5762000efe62000fee565b5b828203905092915050565b6000819050919050565b60005b8381101562000f3457808201518184015260208101905062000f17565b8381111562000f44576000848401525b50505050565b6000600282049050600182168062000f6357607f821691505b6020821081141562000f7a5762000f796200104c565b5b50919050565b62000f8b82620010aa565b810181811067ffffffffffffffff8211171562000fad5762000fac6200107b565b5b80604052505050565b600062000fc38262000f0a565b915062000fd08362000f0a565b92508262000fe35762000fe26200101d565b5b828206905092915050565b7f4e487b7100000000000000000000000000000000000000000000000000000000600052601160045260246000fd5b7f4e487b7100000000000000000000000000000000000000000000000000000000600052601260045260246000fd5b7f4e487b7100000000000000000000000000000000000000000000000000000000600052602260045260246000fd5b7f4e487b7100000000000000000000000000000000000000000000000000000000600052604160045260246000fd5b6000601f19601f8301169050919050565b7f45524332305665737465643a204f6e6c79206f776e657220697320616c6c6f7760008201527f656420746f206d696e7420746f6b656e732e0000000000000000000000000000602082015250565b7f45524332305665737465643a204461746520617272617920616e64206261736960008201527f7320706f696e7473206172726179206861766520646966666572656e74206c6560208201527f6e677468732e0000000000000000000000000000000000000000000000000000604082015250565b7f45524332305665737465643a20416d6f756e74206578636565647320616d6f7560008201527f6e7420617661696c61626c650000000000000000000000000000000000000000602082015250565b7f45524332303a206d696e7420746f20746865207a65726f206164647265737300600082015250565b620012028162000f0a565b81146200120e57600080fd5b50565b61267480620012216000396000f3fe608060405234801561001057600080fd5b506004361061010b5760003560e01c806370a08231116100a2578063a457c2d711610071578063a457c2d7146102bc578063a9059cbb146102ec578063b74e452b1461031c578063dd62ed3e1461033a578063f2fde38b1461036a5761010b565b806370a0823114610246578063715018a6146102765780638da5cb5b1461028057806395d89b411461029e5761010b565b806323b872dd116100de57806323b872dd14610198578063313ce567146101c857806339509351146101e65780634b0ee02a146102165761010b565b806306fdde0314610110578063095ea7b31461012e57806314f7da8f1461015e57806318160ddd1461017a575b600080fd5b610118610386565b6040516101259190611c43565b60405180910390f35b610148600480360381019061014391906118f1565b610418565b6040516101559190611c28565b60405180910390f35b6101786004803603810190610173919061192d565b610436565b005b610182610685565b60405161018f9190611e60565b60405180910390f35b6101b260048036038101906101ad91906118a2565b61068f565b6040516101bf9190611c28565b60405180910390f35b6101d0610790565b6040516101dd9190611ea4565b60405180910390f35b61020060048036038101906101fb91906118f1565b610799565b60405161020d9190611c28565b60405180910390f35b610230600480360381019061022b919061183d565b610845565b60405161023d9190611e60565b60405180910390f35b610260600480360381019061025b919061183d565b610857565b60405161026d9190611e60565b60405180910390f35b61027e610869565b005b6102886109a6565b6040516102959190611c0d565b60405180910390f35b6102a66109d0565b6040516102b39190611c43565b60405180910390f35b6102d660048036038101906102d191906118f1565b610a62565b6040516102e39190611c28565b60405180910390f35b610306600480360381019061030191906118f1565b610b56565b6040516103139190611c28565b60405180910390f35b610324610b74565b6040516103319190611e45565b60405180910390f35b610354600480360381019061034f9190611866565b610b7c565b6040516103619190611e60565b60405180910390f35b610384600480360381019061037f919061183d565b610c03565b005b60606003805461039590612094565b80601f01602080910402602001604051908101604052809291908181526020018280546103c190612094565b801561040e5780601f106103e35761010080835404028352916020019161040e565b820191906000526020600020905b8154815290600101906020018083116103f157829003601f168201915b5050505050905090565b600061042c610425610f0a565b8484610f12565b6001905092915050565b61043e610f0a565b73ffffffffffffffffffffffffffffffffffffffff1661045c6109a6565b73ffffffffffffffffffffffffffffffffffffffff16146104b2576040517f08c379a00000000000000000000000000000000000000000000000000000000081526004016104a990611da5565b60405180910390fd5b60006104bc6109a6565b90508073ffffffffffffffffffffffffffffffffffffffff168473ffffffffffffffffffffffffffffffffffffffff16141561052d576040517f08c379a000000000000000000000000000000000000000000000000000000000815260040161052490611d05565b60405180910390fd5b60008311610570576040517f08c379a000000000000000000000000000000000000000000000000000000000815260040161056790611e05565b60405180910390fd5b610579846110dd565b156105b9576040517f08c379a00000000000000000000000000000000000000000000000000000000081526004016105b090611d65565b60405180910390fd5b604051806040016040528084815260200183815250600860008673ffffffffffffffffffffffffffffffffffffffff1673ffffffffffffffffffffffffffffffffffffffff16815260200190815260200160002060008201518160000155602082015181600101559050508373ffffffffffffffffffffffffffffffffffffffff167ff870f86d1eff0cf4fa95d14a2b2ae48a13568195fd90101457a4e41d1ec5982e848460405161066c929190611e7b565b60405180910390a261067f81858561112b565b50505050565b6000600254905090565b600061069c84848461112b565b6000600160008673ffffffffffffffffffffffffffffffffffffffff1673ffffffffffffffffffffffffffffffffffffffff16815260200190815260200160002060006106e7610f0a565b73ffffffffffffffffffffffffffffffffffffffff1673ffffffffffffffffffffffffffffffffffffffff16815260200190815260200160002054905082811015610767576040517f08c379a000000000000000000000000000000000000000000000000000000000815260040161075e90611d85565b60405180910390fd5b61078485610773610f0a565b858461077f9190611fbc565b610f12565b60019150509392505050565b60006012905090565b600061083b6107a6610f0a565b8484600160006107b4610f0a565b73ffffffffffffffffffffffffffffffffffffffff1673ffffffffffffffffffffffffffffffffffffffff16815260200190815260200160002060008873ffffffffffffffffffffffffffffffffffffffff1673ffffffffffffffffffffffffffffffffffffffff168152602001908152602001600020546108369190611edb565b610f12565b6001905092915050565b6000610850826113aa565b9050919050565b6000610862826113bc565b9050919050565b610871610f0a565b73ffffffffffffffffffffffffffffffffffffffff1661088f6109a6565b73ffffffffffffffffffffffffffffffffffffffff16146108e5576040517f08c379a00000000000000000000000000000000000000000000000000000000081526004016108dc90611da5565b60405180910390fd5b600073ffffffffffffffffffffffffffffffffffffffff16600560009054906101000a900473ffffffffffffffffffffffffffffffffffffffff1673ffffffffffffffffffffffffffffffffffffffff167f8be0079c531659141344cd1fd0a4f28419497f9722a3daafe3b4186f6b6457e060405160405180910390a36000600560006101000a81548173ffffffffffffffffffffffffffffffffffffffff021916908373ffffffffffffffffffffffffffffffffffffffff160217905550565b6000600560009054906101000a900473ffffffffffffffffffffffffffffffffffffffff16905090565b6060600480546109df90612094565b80601f0160208091040260200160405190810160405280929190818152602001828054610a0b90612094565b8015610a585780601f10610a2d57610100808354040283529160200191610a58565b820191906000526020600020905b815481529060010190602001808311610a3b57829003601f168201915b5050505050905090565b60008060016000610a71610f0a565b73ffffffffffffffffffffffffffffffffffffffff1673ffffffffffffffffffffffffffffffffffffffff16815260200190815260200160002060008573ffffffffffffffffffffffffffffffffffffffff1673ffffffffffffffffffffffffffffffffffffffff16815260200190815260200160002054905082811015610b2e576040517f08c379a0000000000000000000000000000000000000000000000000000000008152600401610b2590611e25565b60405180910390fd5b610b4b610b39610f0a565b858584610b469190611fbc565b610f12565b600191505092915050565b6000610b6a610b63610f0a565b848461112b565b6001905092915050565b600042905090565b6000600160008473ffffffffffffffffffffffffffffffffffffffff1673ffffffffffffffffffffffffffffffffffffffff16815260200190815260200160002060008373ffffffffffffffffffffffffffffffffffffffff1673ffffffffffffffffffffffffffffffffffffffff16815260200190815260200160002054905092915050565b610c0b610f0a565b73ffffffffffffffffffffffffffffffffffffffff16610c296109a6565b73ffffffffffffffffffffffffffffffffffffffff1614610c7f576040517f08c379a0000000000000000000000000000000000000000000000000000000008152600401610c7690611da5565b60405180910390fd5b610c88816110dd565b15610cc8576040517f08c379a0000000000000000000000000000000000000000000000000000000008152600401610cbf90611c85565b60405180910390fd5b610cd18161154f565b610cea81610ce5610ce0610f0a565b610857565b610b56565b5050565b505050565b60008083805490501415610d0a5760009050610e13565b600080848054905090505b80821015610d94576000610d298383610ea3565b905084868281548110610d65577f4e487b7100000000000000000000000000000000000000000000000000000000600052603260045260246000fd5b90600052602060002001541115610d7e57809150610d8e565b600181610d8b9190611edb565b92505b50610d15565b600082118015610df257508385600184610dae9190611fbc565b81548110610de5577f4e487b7100000000000000000000000000000000000000000000000000000000600052603260045260246000fd5b9060005260206000200154145b15610e0d57600182610e049190611fbc565b92505050610e13565b81925050505b92915050565b60008183610e279190611f62565b905092915050565b60008183610e3d9190611f31565b905092915050565b60008183610e539190611fbc565b905092915050565b60008060008373ffffffffffffffffffffffffffffffffffffffff1673ffffffffffffffffffffffffffffffffffffffff168152602001908152602001600020549050919050565b600060028083610eb391906120c6565b600285610ec091906120c6565b610eca9190611edb565b610ed49190611f31565b600283610ee19190611f31565b600285610eee9190611f31565b610ef89190611edb565b610f029190611edb565b905092915050565b600033905090565b600073ffffffffffffffffffffffffffffffffffffffff168373ffffffffffffffffffffffffffffffffffffffff161415610f82576040517f08c379a0000000000000000000000000000000000000000000000000000000008152600401610f7990611de5565b60405180910390fd5b600073ffffffffffffffffffffffffffffffffffffffff168273ffffffffffffffffffffffffffffffffffffffff161415610ff2576040517f08c379a0000000000000000000000000000000000000000000000000000000008152600401610fe990611ce5565b60405180910390fd5b80600160008573ffffffffffffffffffffffffffffffffffffffff1673ffffffffffffffffffffffffffffffffffffffff16815260200190815260200160002060008473ffffffffffffffffffffffffffffffffffffffff1673ffffffffffffffffffffffffffffffffffffffff168152602001908152602001600020819055508173ffffffffffffffffffffffffffffffffffffffff168373ffffffffffffffffffffffffffffffffffffffff167f8c5be1e5ebec7d5bd14f71427d1e84f3dd0314c0f7b2291e5b200ac8c7c3b925836040516110d09190611e60565b60405180910390a3505050565b600080600860008473ffffffffffffffffffffffffffffffffffffffff1673ffffffffffffffffffffffffffffffffffffffff16815260200190815260200160002060000154119050919050565b600073ffffffffffffffffffffffffffffffffffffffff168373ffffffffffffffffffffffffffffffffffffffff16141561119b576040517f08c379a000000000000000000000000000000000000000000000000000000000815260040161119290611dc5565b60405180910390fd5b600073ffffffffffffffffffffffffffffffffffffffff168273ffffffffffffffffffffffffffffffffffffffff16141561120b576040517f08c379a000000000000000000000000000000000000000000000000000000000815260040161120290611c65565b60405180910390fd5b6112168383836116fb565b60008060008573ffffffffffffffffffffffffffffffffffffffff1673ffffffffffffffffffffffffffffffffffffffff1681526020019081526020016000205490508181101561129c576040517f08c379a000000000000000000000000000000000000000000000000000000000815260040161129390611d25565b60405180910390fd5b81816112a89190611fbc565b6000808673ffffffffffffffffffffffffffffffffffffffff1673ffffffffffffffffffffffffffffffffffffffff16815260200190815260200160002081905550816000808573ffffffffffffffffffffffffffffffffffffffff1673ffffffffffffffffffffffffffffffffffffffff16815260200190815260200160002060008282546113389190611edb565b925050819055508273ffffffffffffffffffffffffffffffffffffffff168473ffffffffffffffffffffffffffffffffffffffff167fddf252ad1be2c89b69c2b068fc378daa952ba7f163c4a11628f55a4df523b3ef8460405161139c9190611e60565b60405180910390a350505050565b60006113b582610e5b565b9050919050565b600080600860008473ffffffffffffffffffffffffffffffffffffffff1673ffffffffffffffffffffffffffffffffffffffff168152602001908152602001600020604051806040016040529081600082015481526020016001820154815250509050600061142a846113aa565b9050600082600001511115611544576000611477836020015161144b610b74565b6fffffffffffffffffffffffffffffffff166114679190611fbc565b6006610cf390919063ffffffff16565b9050600680549050811015611539576000600782815481106114c2577f4e487b7100000000000000000000000000000000000000000000000000000000600052603260045260246000fd5b9060005260206000200154905060006114fc6127106114ee848860000151610e1990919063ffffffff16565b610e2f90919063ffffffff16565b90506000611517828760000151610e4590919063ffffffff16565b905061152c8186610e4590919063ffffffff16565b965050505050505061154a565b81935050505061154a565b80925050505b919050565b611557610f0a565b73ffffffffffffffffffffffffffffffffffffffff166115756109a6565b73ffffffffffffffffffffffffffffffffffffffff16146115cb576040517f08c379a00000000000000000000000000000000000000000000000000000000081526004016115c290611da5565b60405180910390fd5b600073ffffffffffffffffffffffffffffffffffffffff168173ffffffffffffffffffffffffffffffffffffffff16141561163b576040517f08c379a000000000000000000000000000000000000000000000000000000000815260040161163290611cc5565b60405180910390fd5b8073ffffffffffffffffffffffffffffffffffffffff16600560009054906101000a900473ffffffffffffffffffffffffffffffffffffffff1673ffffffffffffffffffffffffffffffffffffffff167f8be0079c531659141344cd1fd0a4f28419497f9722a3daafe3b4186f6b6457e060405160405180910390a380600560006101000a81548173ffffffffffffffffffffffffffffffffffffffff021916908373ffffffffffffffffffffffffffffffffffffffff16021790555050565b611706838383610cee565b600073ffffffffffffffffffffffffffffffffffffffff168373ffffffffffffffffffffffffffffffffffffffff1614156117bc57611743610f0a565b73ffffffffffffffffffffffffffffffffffffffff166117616109a6565b73ffffffffffffffffffffffffffffffffffffffff16146117b7576040517f08c379a00000000000000000000000000000000000000000000000000000000081526004016117ae90611ca5565b60405180910390fd5b61180e565b60006117c7846113bc565b90508181101561180c576040517f08c379a000000000000000000000000000000000000000000000000000000000815260040161180390611d45565b60405180910390fd5b505b505050565b60008135905061182281612610565b92915050565b60008135905061183781612627565b92915050565b60006020828403121561184f57600080fd5b600061185d84828501611813565b91505092915050565b6000806040838503121561187957600080fd5b600061188785828601611813565b925050602061189885828601611813565b9150509250929050565b6000806000606084860312156118b757600080fd5b60006118c586828701611813565b93505060206118d686828701611813565b92505060406118e786828701611828565b9150509250925092565b6000806040838503121561190457600080fd5b600061191285828601611813565b925050602061192385828601611828565b9150509250929050565b60008060006060848603121561194257600080fd5b600061195086828701611813565b935050602061196186828701611828565b925050604061197286828701611828565b9150509250925092565b61198581611ff0565b82525050565b61199481612002565b82525050565b60006119a582611ebf565b6119af8185611eca565b93506119bf818560208601612061565b6119c881612184565b840191505092915050565b60006119e0602383611eca565b91506119eb82612195565b604082019050919050565b6000611a03602d83611eca565b9150611a0e826121e4565b604082019050919050565b6000611a26603283611eca565b9150611a3182612233565b604082019050919050565b6000611a49602683611eca565b9150611a5482612282565b604082019050919050565b6000611a6c602283611eca565b9150611a77826122d1565b604082019050919050565b6000611a8f602983611eca565b9150611a9a82612320565b604082019050919050565b6000611ab2602683611eca565b9150611abd8261236f565b604082019050919050565b6000611ad5602c83611eca565b9150611ae0826123be565b604082019050919050565b6000611af8602b83611eca565b9150611b038261240d565b604082019050919050565b6000611b1b602883611eca565b9150611b268261245c565b604082019050919050565b6000611b3e602083611eca565b9150611b49826124ab565b602082019050919050565b6000611b61602583611eca565b9150611b6c826124d4565b604082019050919050565b6000611b84602483611eca565b9150611b8f82612523565b604082019050919050565b6000611ba7603183611eca565b9150611bb282612572565b604082019050919050565b6000611bca602583611eca565b9150611bd5826125c1565b604082019050919050565b611be98161200e565b82525050565b611bf88161204a565b82525050565b611c0781612054565b82525050565b6000602082019050611c22600083018461197c565b92915050565b6000602082019050611c3d600083018461198b565b92915050565b60006020820190508181036000830152611c5d818461199a565b905092915050565b60006020820190508181036000830152611c7e816119d3565b9050919050565b60006020820190508181036000830152611c9e816119f6565b9050919050565b60006020820190508181036000830152611cbe81611a19565b9050919050565b60006020820190508181036000830152611cde81611a3c565b9050919050565b60006020820190508181036000830152611cfe81611a5f565b9050919050565b60006020820190508181036000830152611d1e81611a82565b9050919050565b60006020820190508181036000830152611d3e81611aa5565b9050919050565b60006020820190508181036000830152611d5e81611ac8565b9050919050565b60006020820190508181036000830152611d7e81611aeb565b9050919050565b60006020820190508181036000830152611d9e81611b0e565b9050919050565b60006020820190508181036000830152611dbe81611b31565b9050919050565b60006020820190508181036000830152611dde81611b54565b9050919050565b60006020820190508181036000830152611dfe81611b77565b9050919050565b60006020820190508181036000830152611e1e81611b9a565b9050919050565b60006020820190508181036000830152611e3e81611bbd565b9050919050565b6000602082019050611e5a6000830184611be0565b92915050565b6000602082019050611e756000830184611bef565b92915050565b6000604082019050611e906000830185611bef565b611e9d6020830184611bef565b9392505050565b6000602082019050611eb96000830184611bfe565b92915050565b600081519050919050565b600082825260208201905092915050565b6000611ee68261204a565b9150611ef18361204a565b9250827fffffffffffffffffffffffffffffffffffffffffffffffffffffffffffffffff03821115611f2657611f256120f7565b5b828201905092915050565b6000611f3c8261204a565b9150611f478361204a565b925082611f5757611f56612126565b5b828204905092915050565b6000611f6d8261204a565b9150611f788361204a565b9250817fffffffffffffffffffffffffffffffffffffffffffffffffffffffffffffffff0483118215151615611fb157611fb06120f7565b5b828202905092915050565b6000611fc78261204a565b9150611fd28361204a565b925082821015611fe557611fe46120f7565b5b828203905092915050565b6000611ffb8261202a565b9050919050565b60008115159050919050565b60006fffffffffffffffffffffffffffffffff82169050919050565b600073ffffffffffffffffffffffffffffffffffffffff82169050919050565b6000819050919050565b600060ff82169050919050565b60005b8381101561207f578082015181840152602081019050612064565b8381111561208e576000848401525b50505050565b600060028204905060018216806120ac57607f821691505b602082108114156120c0576120bf612155565b5b50919050565b60006120d18261204a565b91506120dc8361204a565b9250826120ec576120eb612126565b5b828206905092915050565b7f4e487b7100000000000000000000000000000000000000000000000000000000600052601160045260246000fd5b7f4e487b7100000000000000000000000000000000000000000000000000000000600052601260045260246000fd5b7f4e487b7100000000000000000000000000000000000000000000000000000000600052602260045260246000fd5b6000601f19601f8301169050919050565b7f45524332303a207472616e7366657220746f20746865207a65726f206164647260008201527f6573730000000000000000000000000000000000000000000000000000000000602082015250565b7f45524332305665737465643a204e6577206f776e6572206d757374206e6f742060008201527f686176652076657374696e672e00000000000000000000000000000000000000602082015250565b7f45524332305665737465643a204f6e6c79206f776e657220697320616c6c6f7760008201527f656420746f206d696e7420746f6b656e732e0000000000000000000000000000602082015250565b7f4f776e61626c653a206e6577206f776e657220697320746865207a65726f206160008201527f6464726573730000000000000000000000000000000000000000000000000000602082015250565b7f45524332303a20617070726f766520746f20746865207a65726f20616464726560008201527f7373000000000000000000000000000000000000000000000000000000000000602082015250565b7f45524332305665737465643a204f776e6572206d757374206e6f74206861766560008201527f2076657374696e672e0000000000000000000000000000000000000000000000602082015250565b7f45524332303a207472616e7366657220616d6f756e742065786365656473206260008201527f616c616e63650000000000000000000000000000000000000000000000000000602082015250565b7f45524332305665737465643a20416d6f756e74206578636565647320616d6f7560008201527f6e7420617661696c61626c650000000000000000000000000000000000000000602082015250565b7f45524332305665737465643a20526563697069656e7420616c7265616479206860008201527f61732076657374696e672e000000000000000000000000000000000000000000602082015250565b7f45524332303a207472616e7366657220616d6f756e742065786365656473206160008201527f6c6c6f77616e6365000000000000000000000000000000000000000000000000602082015250565b7f4f776e61626c653a2063616c6c6572206973206e6f7420746865206f776e6572600082015250565b7f45524332303a207472616e736665722066726f6d20746865207a65726f20616460008201527f6472657373000000000000000000000000000000000000000000000000000000602082015250565b7f45524332303a20617070726f76652066726f6d20746865207a65726f2061646460008201527f7265737300000000000000000000000000000000000000000000000000000000602082015250565b7f45524332305665737465643a20416d6f756e7420766573746564206d7573742060008201527f6265206c6172676572207468616e20302e000000000000000000000000000000602082015250565b7f45524332303a2064656372656173656420616c6c6f77616e63652062656c6f7760008201527f207a65726f000000000000000000000000000000000000000000000000000000602082015250565b61261981611ff0565b811461262457600080fd5b50565b6126308161204a565b811461263b57600080fd5b5056fea2646970667358221220ff477603eee65922adc0e88083abef1fcda42c119dc941d4d45d38e1cb8f776f64736f6c63430008010033",
  "devdoc": {
    "kind": "dev",
    "methods": {
      "allowance(address,address)": {
        "details": "See {IERC20-allowance}."
      },
      "approve(address,uint256)": {
        "details": "See {IERC20-approve}. Requirements: - `spender` cannot be the zero address."
      },
      "balanceOf(address)": {
        "details": "See {IERC20-balanceOf}."
      },
      "decimals()": {
        "details": "Returns the number of decimals used to get its user representation. For example, if `decimals` equals `2`, a balance of `505` tokens should be displayed to a user as `5,05` (`505 / 10 ** 2`). Tokens usually opt for a value of 18, imitating the relationship between Ether and Wei. This is the value {ERC20} uses, unless this function is overloaded; NOTE: This information is only used for _display_ purposes: it in no way affects any of the arithmetic of the contract, including {IERC20-balanceOf} and {IERC20-transfer}."
      },
      "decreaseAllowance(address,uint256)": {
        "details": "Atomically decreases the allowance granted to `spender` by the caller. This is an alternative to {approve} that can be used as a mitigation for problems described in {IERC20-approve}. Emits an {Approval} event indicating the updated allowance. Requirements: - `spender` cannot be the zero address. - `spender` must have allowance for the caller of at least `subtractedValue`."
      },
      "increaseAllowance(address,uint256)": {
        "details": "Atomically increases the allowance granted to `spender` by the caller. This is an alternative to {approve} that can be used as a mitigation for problems described in {IERC20-approve}. Emits an {Approval} event indicating the updated allowance. Requirements: - `spender` cannot be the zero address."
      },
      "name()": {
        "details": "Returns the name of the token."
      },
      "owner()": {
        "details": "Returns the address of the current owner."
      },
      "renounceOwnership()": {
        "details": "Leaves the contract without owner. It will not be possible to call `onlyOwner` functions anymore. Can only be called by the current owner. NOTE: Renouncing ownership will leave the contract without an owner, thereby removing any functionality that is only available to the owner."
      },
      "symbol()": {
        "details": "Returns the symbol of the token, usually a shorter version of the name."
      },
      "totalSupply()": {
        "details": "See {IERC20-totalSupply}."
      },
      "transfer(address,uint256)": {
        "details": "See {IERC20-transfer}. Requirements: - `recipient` cannot be the zero address. - the caller must have a balance of at least `amount`."
      },
      "transferFrom(address,address,uint256)": {
        "details": "See {IERC20-transferFrom}. Emits an {Approval} event indicating the updated allowance. This is not required by the EIP. See the note at the beginning of {ERC20}. Requirements: - `sender` and `recipient` cannot be the zero address. - `sender` must have a balance of at least `amount`. - the caller must have allowance for ``sender``'s tokens of at least `amount`."
      },
      "transferOwnership(address)": {
        "details": "Transfers ownership of the contract to a new account (`newOwner`). Can only be called by the current owner."
      }
    },
    "version": 1
  },
  "userdoc": {
    "kind": "user",
    "methods": {},
    "version": 1
  },
  "storageLayout": {
    "storage": [
      {
        "astId": 1060,
        "contract": "contracts/ERC20Vested.sol:ERC20Vested",
        "label": "_balances",
        "offset": 0,
        "slot": "0",
        "type": "t_mapping(t_address,t_uint256)"
      },
      {
        "astId": 1066,
        "contract": "contracts/ERC20Vested.sol:ERC20Vested",
        "label": "_allowances",
        "offset": 0,
        "slot": "1",
        "type": "t_mapping(t_address,t_mapping(t_address,t_uint256))"
      },
      {
        "astId": 1068,
        "contract": "contracts/ERC20Vested.sol:ERC20Vested",
        "label": "_totalSupply",
        "offset": 0,
        "slot": "2",
        "type": "t_uint256"
      },
      {
        "astId": 1070,
        "contract": "contracts/ERC20Vested.sol:ERC20Vested",
        "label": "_name",
        "offset": 0,
        "slot": "3",
        "type": "t_string_storage"
      },
      {
        "astId": 1072,
        "contract": "contracts/ERC20Vested.sol:ERC20Vested",
        "label": "_symbol",
        "offset": 0,
        "slot": "4",
        "type": "t_string_storage"
      },
      {
        "astId": 496,
        "contract": "contracts/ERC20Vested.sol:ERC20Vested",
        "label": "_owner",
        "offset": 0,
        "slot": "5",
        "type": "t_address"
      },
      {
        "astId": 36,
        "contract": "contracts/ERC20Vested.sol:ERC20Vested",
        "label": "_vestingDays",
        "offset": 0,
        "slot": "6",
        "type": "t_array(t_uint256)dyn_storage"
      },
      {
        "astId": 39,
        "contract": "contracts/ERC20Vested.sol:ERC20Vested",
        "label": "_vestingBasisPoints",
        "offset": 0,
        "slot": "7",
        "type": "t_array(t_uint256)dyn_storage"
      },
      {
        "astId": 44,
        "contract": "contracts/ERC20Vested.sol:ERC20Vested",
        "label": "_vesting",
        "offset": 0,
        "slot": "8",
        "type": "t_mapping(t_address,t_struct(vesting)26_storage)"
      }
    ],
    "types": {
      "t_address": {
        "encoding": "inplace",
        "label": "address",
        "numberOfBytes": "20"
      },
      "t_array(t_uint256)dyn_storage": {
        "base": "t_uint256",
        "encoding": "dynamic_array",
        "label": "uint256[]",
        "numberOfBytes": "32"
      },
      "t_mapping(t_address,t_mapping(t_address,t_uint256))": {
        "encoding": "mapping",
        "key": "t_address",
        "label": "mapping(address => mapping(address => uint256))",
        "numberOfBytes": "32",
        "value": "t_mapping(t_address,t_uint256)"
      },
      "t_mapping(t_address,t_struct(vesting)26_storage)": {
        "encoding": "mapping",
        "key": "t_address",
        "label": "mapping(address => struct ERC20Vested.vesting)",
        "numberOfBytes": "32",
        "value": "t_struct(vesting)26_storage"
      },
      "t_mapping(t_address,t_uint256)": {
        "encoding": "mapping",
        "key": "t_address",
        "label": "mapping(address => uint256)",
        "numberOfBytes": "32",
        "value": "t_uint256"
      },
      "t_string_storage": {
        "encoding": "bytes",
        "label": "string",
        "numberOfBytes": "32"
      },
      "t_struct(vesting)26_storage": {
        "encoding": "inplace",
        "label": "struct ERC20Vested.vesting",
        "members": [
          {
            "astId": 23,
            "contract": "contracts/ERC20Vested.sol:ERC20Vested",
            "label": "amount",
            "offset": 0,
            "slot": "0",
            "type": "t_uint256"
          },
          {
            "astId": 25,
            "contract": "contracts/ERC20Vested.sol:ERC20Vested",
            "label": "startDate",
            "offset": 0,
            "slot": "1",
            "type": "t_uint256"
          }
        ],
        "numberOfBytes": "64"
      },
      "t_uint256": {
        "encoding": "inplace",
        "label": "uint256",
        "numberOfBytes": "32"
      }
    }
  }
}