{
  "address": "0xDbC1603b5c634a36380D0283EdF95a6Fa170800F",
  "abi": [
    {
      "inputs": [
        {
          "internalType": "address",
          "name": "_token",
          "type": "address"
        },
        {
          "internalType": "address",
          "name": "_rescuer",
          "type": "address"
        }
      ],
      "stateMutability": "payable",
      "type": "constructor"
    },
    {
      "anonymous": false,
      "inputs": [
        {
          "indexed": true,
          "internalType": "address",
          "name": "beneficiary",
          "type": "address"
        },
        {
          "indexed": false,
          "internalType": "uint256",
          "name": "amount",
          "type": "uint256"
        }
      ],
      "name": "AllClaimed",
      "type": "event"
    },
    {
      "anonymous": false,
      "inputs": [
        {
          "indexed": true,
          "internalType": "address",
          "name": "previousOwner",
          "type": "address"
        },
        {
          "indexed": true,
          "internalType": "address",
          "name": "newOwner",
          "type": "address"
        }
      ],
      "name": "OwnershipTransferred",
      "type": "event"
    },
    {
      "anonymous": false,
      "inputs": [
        {
          "indexed": false,
          "internalType": "address",
          "name": "account",
          "type": "address"
        }
      ],
      "name": "Paused",
      "type": "event"
    },
    {
      "anonymous": false,
      "inputs": [
        {
          "indexed": false,
          "internalType": "address",
          "name": "account",
          "type": "address"
        }
      ],
      "name": "Unpaused",
      "type": "event"
    },
    {
      "anonymous": false,
      "inputs": [
        {
          "indexed": true,
          "internalType": "address",
          "name": "beneficiary",
          "type": "address"
        },
        {
          "indexed": false,
          "internalType": "uint256",
          "name": "amount",
          "type": "uint256"
        },
        {
          "indexed": false,
          "internalType": "uint256",
          "name": "start",
          "type": "uint256"
        },
        {
          "indexed": false,
          "internalType": "uint256",
          "name": "duration",
          "type": "uint256"
        },
        {
          "indexed": false,
          "internalType": "uint256",
          "name": "bonusAmount",
          "type": "uint256"
        }
      ],
      "name": "Vested",
      "type": "event"
    },
    {
      "inputs": [],
      "name": "MAX_VESTING_AMOUNT",
      "outputs": [
        {
          "internalType": "uint256",
          "name": "",
          "type": "uint256"
        }
      ],
      "stateMutability": "view",
      "type": "function"
    },
    {
      "inputs": [],
      "name": "MIN_FUTURE_END",
      "outputs": [
        {
          "internalType": "uint256",
          "name": "",
          "type": "uint256"
        }
      ],
      "stateMutability": "view",
      "type": "function"
    },
    {
      "inputs": [
        {
          "internalType": "address",
          "name": "beneficiary",
          "type": "address"
        },
        {
          "internalType": "uint256",
          "name": "amount",
          "type": "uint256"
        },
        {
          "internalType": "uint256",
          "name": "start",
          "type": "uint256"
        },
        {
          "internalType": "uint256",
          "name": "duration",
          "type": "uint256"
        },
        {
          "internalType": "uint256",
          "name": "bonusAmount",
          "type": "uint256"
        }
      ],
      "name": "addClaim",
      "outputs": [],
      "stateMutability": "nonpayable",
      "type": "function"
    },
    {
      "inputs": [],
      "name": "allBonuses",
      "outputs": [
        {
          "internalType": "uint256",
          "name": "",
          "type": "uint256"
        }
      ],
      "stateMutability": "view",
      "type": "function"
    },
    {
      "inputs": [],
      "name": "allTokensClaimed",
      "outputs": [
        {
          "internalType": "uint256",
          "name": "",
          "type": "uint256"
        }
      ],
      "stateMutability": "view",
      "type": "function"
    },
    {
      "inputs": [],
      "name": "allTokensVested",
      "outputs": [
        {
          "internalType": "uint256",
          "name": "",
          "type": "uint256"
        }
      ],
      "stateMutability": "view",
      "type": "function"
    },
    {
      "inputs": [
        {
          "internalType": "address",
          "name": "account",
          "type": "address"
        }
      ],
      "name": "claimAll",
      "outputs": [],
      "stateMutability": "nonpayable",
      "type": "function"
    },
    {
      "inputs": [],
      "name": "owner",
      "outputs": [
        {
          "internalType": "address",
          "name": "",
          "type": "address"
        }
      ],
      "stateMutability": "view",
      "type": "function"
    },
    {
      "inputs": [],
      "name": "pause",
      "outputs": [],
      "stateMutability": "nonpayable",
      "type": "function"
    },
    {
      "inputs": [],
      "name": "paused",
      "outputs": [
        {
          "internalType": "bool",
          "name": "",
          "type": "bool"
        }
      ],
      "stateMutability": "view",
      "type": "function"
    },
    {
      "inputs": [],
      "name": "renounceOwnership",
      "outputs": [],
      "stateMutability": "nonpayable",
      "type": "function"
    },
    {
      "inputs": [],
      "name": "rescue",
      "outputs": [],
      "stateMutability": "nonpayable",
      "type": "function"
    },
    {
      "inputs": [],
      "name": "rescuer",
      "outputs": [
        {
          "internalType": "address",
          "name": "",
          "type": "address"
        }
      ],
      "stateMutability": "view",
      "type": "function"
    },
    {
      "inputs": [],
      "name": "token",
      "outputs": [
        {
          "internalType": "address",
          "name": "",
          "type": "address"
        }
      ],
      "stateMutability": "view",
      "type": "function"
    },
    {
      "inputs": [
        {
          "internalType": "address",
          "name": "account",
          "type": "address"
        }
      ],
      "name": "totalsOf",
      "outputs": [
        {
          "components": [
            {
              "internalType": "uint256",
              "name": "coinsTotal",
              "type": "uint256"
            },
            {
              "internalType": "uint256",
              "name": "coinsAvailable",
              "type": "uint256"
            },
            {
              "internalType": "uint256",
              "name": "coinsClaimed",
              "type": "uint256"
            },
            {
              "internalType": "uint256",
              "name": "bonusesTotal",
              "type": "uint256"
            },
            {
              "internalType": "uint256",
              "name": "bonusesAvailable",
              "type": "uint256"
            },
            {
              "internalType": "uint256",
              "name": "bonusesClaimed",
              "type": "uint256"
            }
          ],
          "internalType": "struct ERC20Vesting.Totals",
          "name": "",
          "type": "tuple"
        }
      ],
      "stateMutability": "view",
      "type": "function"
    },
    {
      "inputs": [
        {
          "internalType": "address",
          "name": "account",
          "type": "address"
        },
        {
          "internalType": "uint128",
          "name": "time",
          "type": "uint128"
        }
      ],
      "name": "totalsOfAt",
      "outputs": [
        {
          "components": [
            {
              "internalType": "uint256",
              "name": "coinsTotal",
              "type": "uint256"
            },
            {
              "internalType": "uint256",
              "name": "coinsAvailable",
              "type": "uint256"
            },
            {
              "internalType": "uint256",
              "name": "coinsClaimed",
              "type": "uint256"
            },
            {
              "internalType": "uint256",
              "name": "bonusesTotal",
              "type": "uint256"
            },
            {
              "internalType": "uint256",
              "name": "bonusesAvailable",
              "type": "uint256"
            },
            {
              "internalType": "uint256",
              "name": "bonusesClaimed",
              "type": "uint256"
            }
          ],
          "internalType": "struct ERC20Vesting.Totals",
          "name": "",
          "type": "tuple"
        }
      ],
      "stateMutability": "view",
      "type": "function"
    },
    {
      "inputs": [
        {
          "internalType": "address",
          "name": "newOwner",
          "type": "address"
        }
      ],
      "name": "transferOwnership",
      "outputs": [],
      "stateMutability": "nonpayable",
      "type": "function"
    },
    {
      "inputs": [],
      "name": "unpause",
      "outputs": [],
      "stateMutability": "nonpayable",
      "type": "function"
    }
  ],
  "transactionHash": "0x58cb989b1a6b8e2c751254cb3455067ef52b2c72328e2dfa38ffa9fa25637fa5",
  "args": [
    "0x8c6Df6381aFc9821977a17Fc7846e229B649dE04",
    "0xDac34A9757BAd176e7914bDC29Ac1250B8EE82C5"
  ],
  "numDeployments": 4,
  "solcInputHash": "9e3ccecae184ea905edd1e555eea17d5",
  "bytecode": "0x60c0604052604051620023d7380380620023d7833981810160405281019062000029919062000247565b60006200003b620001d560201b60201c565b9050806000806101000a81548173ffffffffffffffffffffffffffffffffffffffff021916908373ffffffffffffffffffffffffffffffffffffffff1602179055508073ffffffffffffffffffffffffffffffffffffffff16600073ffffffffffffffffffffffffffffffffffffffff167f8be0079c531659141344cd1fd0a4f28419497f9722a3daafe3b4186f6b6457e060405160405180910390a35060008060146101000a81548160ff021916908315150217905550600073ffffffffffffffffffffffffffffffffffffffff168273ffffffffffffffffffffffffffffffffffffffff160362000165576040517f08c379a00000000000000000000000000000000000000000000000000000000081526004016200015c9062000315565b60405180910390fd5b8173ffffffffffffffffffffffffffffffffffffffff1660808173ffffffffffffffffffffffffffffffffffffffff16815250508073ffffffffffffffffffffffffffffffffffffffff1660a08173ffffffffffffffffffffffffffffffffffffffff1681525050505062000337565b600033905090565b600080fd5b600073ffffffffffffffffffffffffffffffffffffffff82169050919050565b60006200020f82620001e2565b9050919050565b620002218162000202565b81146200022d57600080fd5b50565b600081519050620002418162000216565b92915050565b60008060408385031215620002615762000260620001dd565b5b6000620002718582860162000230565b9250506020620002848582860162000230565b9150509250929050565b600082825260208201905092915050565b7f455243323056657374696e673a2043616e6e6f7420757365203020616464726560008201527f73732061732076657374696e6720746f6b656e2e000000000000000000000000602082015250565b6000620002fd6034836200028e565b91506200030a826200029f565b604082019050919050565b600060208201905081810360008301526200033081620002ee565b9050919050565b60805160a0516120576200038060003960008181610307015281816103d10152610509015260008181610395015281816103f201528181610cca015261102201526120576000f3fe608060405234801561001057600080fd5b50600436106101165760003560e01c8063715018a6116100a25780639d34b6ec116100715780639d34b6ec14610271578063b4e2d0c41461028f578063f2fde38b146102ad578063fc0c546a146102c9578063fc9acc16146102e757610116565b8063715018a61461022357806377329f351461022d5780638456cb59146102495780638da5cb5b1461025357610116565b80633f4ba83a116100e95780633f4ba83a1461018f578063427d74321461019957806344f99e18146101c95780635c975abb146101e75780636df461ec1461020557610116565b80631fbe19791461011b57806329891e9b1461012557806338a631831461015557806339e84e3514610173575b600080fd5b610123610305565b005b61013f600480360381019061013a919061155c565b6104ed565b60405161014c9190611630565b60405180910390f35b61015d610507565b60405161016a919061165a565b60405180910390f35b61018d600480360381019061018891906116a1565b61052b565b005b610197610876565b005b6101b360048036038101906101ae919061171c565b6108fc565b6040516101c09190611630565b60405180910390f35b6101d161091c565b6040516101de9190611758565b60405180910390f35b6101ef610922565b6040516101fc919061178e565b60405180910390f35b61020d610938565b60405161021a9190611758565b60405180910390f35b61022b61093e565b005b6102476004803603810190610242919061171c565b610a78565b005b610251610dbc565b005b61025b610e42565b604051610268919061165a565b60405180910390f35b610279610e6b565b6040516102869190611758565b60405180910390f35b610297610e71565b6040516102a49190611758565b60405180910390f35b6102c760048036038101906102c2919061171c565b610e78565b005b6102d1611020565b6040516102de919061165a565b60405180910390f35b6102ef611044565b6040516102fc9190611758565b60405180910390f35b7f000000000000000000000000000000000000000000000000000000000000000073ffffffffffffffffffffffffffffffffffffffff163373ffffffffffffffffffffffffffffffffffffffff1614610393576040517f08c379a000000000000000000000000000000000000000000000000000000000815260040161038a9061182c565b60405180910390fd5b7f000000000000000000000000000000000000000000000000000000000000000073ffffffffffffffffffffffffffffffffffffffff1663a9059cbb7f00000000000000000000000000000000000000000000000000000000000000007f000000000000000000000000000000000000000000000000000000000000000073ffffffffffffffffffffffffffffffffffffffff166370a08231306040518263ffffffff1660e01b8152600401610449919061165a565b602060405180830381865afa158015610466573d6000803e3d6000fd5b505050506040513d601f19601f8201168201806040525081019061048a9190611861565b6040518363ffffffff1660e01b81526004016104a792919061188e565b6020604051808303816000875af11580156104c6573d6000803e3d6000fd5b505050506040513d601f19601f820116820180604052508101906104ea91906118e3565b50565b6104f561147b565b6104ff838361105f565b905092915050565b7f000000000000000000000000000000000000000000000000000000000000000081565b610533611313565b73ffffffffffffffffffffffffffffffffffffffff16610551610e42565b73ffffffffffffffffffffffffffffffffffffffff16146105a7576040517f08c379a000000000000000000000000000000000000000000000000000000000815260040161059e9061195c565b60405180910390fd5b6105af61131b565b600084116105f2576040517f08c379a00000000000000000000000000000000000000000000000000000000081526004016105e9906119ee565b60405180910390fd5b6305f5e100670de0b6b3a764000061060a9190611a3d565b84111561064c576040517f08c379a000000000000000000000000000000000000000000000000000000000815260040161064390611af1565b60405180910390fd5b62278d00610658611365565b6fffffffffffffffffffffffffffffffff166106749190611b11565b82846106809190611b11565b10156106c1576040517f08c379a00000000000000000000000000000000000000000000000000000000081526004016106b890611bb7565b60405180910390fd5b600073ffffffffffffffffffffffffffffffffffffffff168573ffffffffffffffffffffffffffffffffffffffff1603610730576040517f08c379a000000000000000000000000000000000000000000000000000000000815260040161072790611c49565b60405180910390fd5b6000600460008773ffffffffffffffffffffffffffffffffffffffff1673ffffffffffffffffffffffffffffffffffffffff168152602001908152602001600020905080604051806080016040528087815260200186815260200185815260200184815250908060018154018082558091505060019003906000526020600020906004020160009091909190915060008201518160000155602082015181600101556040820151816002015560608201518160030155505081600260008282546107fa9190611b11565b9250508190555084600160008282546108139190611b11565b925050819055508573ffffffffffffffffffffffffffffffffffffffff167f941cbd834819010c51a7ba64d08be10e66647609622f7b32c3e81db19fdb0387868686866040516108669493929190611c69565b60405180910390a2505050505050565b61087e611313565b73ffffffffffffffffffffffffffffffffffffffff1661089c610e42565b73ffffffffffffffffffffffffffffffffffffffff16146108f2576040517f08c379a00000000000000000000000000000000000000000000000000000000081526004016108e99061195c565b60405180910390fd5b6108fa61136d565b565b61090461147b565b61091582610910611365565b61105f565b9050919050565b60035481565b60008060149054906101000a900460ff16905090565b60025481565b610946611313565b73ffffffffffffffffffffffffffffffffffffffff16610964610e42565b73ffffffffffffffffffffffffffffffffffffffff16146109ba576040517f08c379a00000000000000000000000000000000000000000000000000000000081526004016109b19061195c565b60405180910390fd5b600073ffffffffffffffffffffffffffffffffffffffff1660008054906101000a900473ffffffffffffffffffffffffffffffffffffffff1673ffffffffffffffffffffffffffffffffffffffff167f8be0079c531659141344cd1fd0a4f28419497f9722a3daafe3b4186f6b6457e060405160405180910390a360008060006101000a81548173ffffffffffffffffffffffffffffffffffffffff021916908373ffffffffffffffffffffffffffffffffffffffff160217905550565b610a80611313565b73ffffffffffffffffffffffffffffffffffffffff16610a9e610e42565b73ffffffffffffffffffffffffffffffffffffffff1614610af4576040517f08c379a0000000000000000000000000000000000000000000000000000000008152600401610aeb9061195c565b60405180910390fd5b610afc61131b565b6000610b0f82610b0a611365565b61105f565b9050600081602001511180610b28575060008160800151115b610b67576040517f08c379a0000000000000000000000000000000000000000000000000000000008152600401610b5e90611cfa565b60405180910390fd5b806040015181602001511180610b8457508060a001518160800151115b610bc3576040517f08c379a0000000000000000000000000000000000000000000000000000000008152600401610bba90611d8c565b60405180910390fd5b60008160a001518260800151610bd99190611dac565b9050600082604001518360200151610bf19190611dac565b905060008282610c019190611b11565b905081600660008773ffffffffffffffffffffffffffffffffffffffff1673ffffffffffffffffffffffffffffffffffffffff1681526020019081526020016000206000828254610c529190611b11565b9250508190555082600560008773ffffffffffffffffffffffffffffffffffffffff1673ffffffffffffffffffffffffffffffffffffffff1681526020019081526020016000206000828254610ca89190611b11565b925050819055508060036000828254610cc19190611b11565b925050819055507f000000000000000000000000000000000000000000000000000000000000000073ffffffffffffffffffffffffffffffffffffffff1663a9059cbb86836040518363ffffffff1660e01b8152600401610d2392919061188e565b6020604051808303816000875af1158015610d42573d6000803e3d6000fd5b505050506040513d601f19601f82011682018060405250810190610d6691906118e3565b508473ffffffffffffffffffffffffffffffffffffffff167f18dd7fb484f1242f10dd10c959828c1ea7de1344b54f4d1f8c1b548b412bf75482604051610dad9190611758565b60405180910390a25050505050565b610dc4611313565b73ffffffffffffffffffffffffffffffffffffffff16610de2610e42565b73ffffffffffffffffffffffffffffffffffffffff1614610e38576040517f08c379a0000000000000000000000000000000000000000000000000000000008152600401610e2f9061195c565b60405180910390fd5b610e406113cf565b565b60008060009054906101000a900473ffffffffffffffffffffffffffffffffffffffff16905090565b60015481565b62278d0081565b610e80611313565b73ffffffffffffffffffffffffffffffffffffffff16610e9e610e42565b73ffffffffffffffffffffffffffffffffffffffff1614610ef4576040517f08c379a0000000000000000000000000000000000000000000000000000000008152600401610eeb9061195c565b60405180910390fd5b600073ffffffffffffffffffffffffffffffffffffffff168173ffffffffffffffffffffffffffffffffffffffff1603610f63576040517f08c379a0000000000000000000000000000000000000000000000000000000008152600401610f5a90611e52565b60405180910390fd5b8073ffffffffffffffffffffffffffffffffffffffff1660008054906101000a900473ffffffffffffffffffffffffffffffffffffffff1673ffffffffffffffffffffffffffffffffffffffff167f8be0079c531659141344cd1fd0a4f28419497f9722a3daafe3b4186f6b6457e060405160405180910390a3806000806101000a81548173ffffffffffffffffffffffffffffffffffffffff021916908373ffffffffffffffffffffffffffffffffffffffff16021790555050565b7f000000000000000000000000000000000000000000000000000000000000000081565b6305f5e100670de0b6b3a764000061105c9190611a3d565b81565b61106761147b565b60008060008060005b600460008973ffffffffffffffffffffffffffffffffffffffff1673ffffffffffffffffffffffffffffffffffffffff1681526020019081526020016000208054905081101561124f576000600460008a73ffffffffffffffffffffffffffffffffffffffff1673ffffffffffffffffffffffffffffffffffffffff168152602001908152602001600020828154811061110d5761110c611e72565b5b90600052602060002090600402016040518060800160405290816000820154815260200160018201548152602001600282015481526020016003820154815250509050806040015181602001516111649190611b11565b886fffffffffffffffffffffffffffffffff16106111a55780600001518361118c9190611b11565b925080606001518561119e9190611b11565b9450611217565b8060200151886fffffffffffffffffffffffffffffffff1610611216576000816040015182602001518a6fffffffffffffffffffffffffffffffff166111eb9190611dac565b83606001516111fa9190611a3d565b6112049190611ed0565b905080866112129190611b11565b9550505b5b8060000151846112279190611b11565b93508060600151866112399190611b11565b955050808061124790611f01565b915050611070565b506000600660008973ffffffffffffffffffffffffffffffffffffffff1673ffffffffffffffffffffffffffffffffffffffff1681526020019081526020016000205490506000600560008a73ffffffffffffffffffffffffffffffffffffffff1673ffffffffffffffffffffffffffffffffffffffff1681526020019081526020016000205490506040518060c0016040528085815260200184815260200183815260200187815260200186815260200182815250965050505050505092915050565b600033905090565b611323610922565b15611363576040517f08c379a000000000000000000000000000000000000000000000000000000000815260040161135a90611f95565b60405180910390fd5b565b600042905090565b611375611432565b60008060146101000a81548160ff0219169083151502179055507f5db9ee0a495bf2e6ff9c91a7834c1ba4fdd244a5e8aa4e537bd38aeae4b073aa6113b8611313565b6040516113c5919061165a565b60405180910390a1565b6113d761131b565b6001600060146101000a81548160ff0219169083151502179055507f62e78cea01bee320cd4e420270b5ea74000d11b0c9f74754ebdbfc544b05a25861141b611313565b604051611428919061165a565b60405180910390a1565b61143a610922565b611479576040517f08c379a000000000000000000000000000000000000000000000000000000000815260040161147090612001565b60405180910390fd5b565b6040518060c001604052806000815260200160008152602001600081526020016000815260200160008152602001600081525090565b600080fd5b600073ffffffffffffffffffffffffffffffffffffffff82169050919050565b60006114e1826114b6565b9050919050565b6114f1816114d6565b81146114fc57600080fd5b50565b60008135905061150e816114e8565b92915050565b60006fffffffffffffffffffffffffffffffff82169050919050565b61153981611514565b811461154457600080fd5b50565b60008135905061155681611530565b92915050565b60008060408385031215611573576115726114b1565b5b6000611581858286016114ff565b925050602061159285828601611547565b9150509250929050565b6000819050919050565b6115af8161159c565b82525050565b60c0820160008201516115cb60008501826115a6565b5060208201516115de60208501826115a6565b5060408201516115f160408501826115a6565b50606082015161160460608501826115a6565b50608082015161161760808501826115a6565b5060a082015161162a60a08501826115a6565b50505050565b600060c08201905061164560008301846115b5565b92915050565b611654816114d6565b82525050565b600060208201905061166f600083018461164b565b92915050565b61167e8161159c565b811461168957600080fd5b50565b60008135905061169b81611675565b92915050565b600080600080600060a086880312156116bd576116bc6114b1565b5b60006116cb888289016114ff565b95505060206116dc8882890161168c565b94505060406116ed8882890161168c565b93505060606116fe8882890161168c565b925050608061170f8882890161168c565b9150509295509295909350565b600060208284031215611732576117316114b1565b5b6000611740848285016114ff565b91505092915050565b6117528161159c565b82525050565b600060208201905061176d6000830184611749565b92915050565b60008115159050919050565b61178881611773565b82525050565b60006020820190506117a3600083018461177f565b92915050565b600082825260208201905092915050565b7f455243323056657374696e673a2043616c6c6572206973206e6f74207468652060008201527f7265736375657200000000000000000000000000000000000000000000000000602082015250565b60006118166027836117a9565b9150611821826117ba565b604082019050919050565b6000602082019050818103600083015261184581611809565b9050919050565b60008151905061185b81611675565b92915050565b600060208284031215611877576118766114b1565b5b60006118858482850161184c565b91505092915050565b60006040820190506118a3600083018561164b565b6118b06020830184611749565b9392505050565b6118c081611773565b81146118cb57600080fd5b50565b6000815190506118dd816118b7565b92915050565b6000602082840312156118f9576118f86114b1565b5b6000611907848285016118ce565b91505092915050565b7f4f776e61626c653a2063616c6c6572206973206e6f7420746865206f776e6572600082015250565b60006119466020836117a9565b915061195182611910565b602082019050919050565b6000602082019050818103600083015261197581611939565b9050919050565b7f455243323056657374696e673a20416d6f756e7420766573746564206d75737460008201527f206265206c6172676572207468616e20302e0000000000000000000000000000602082015250565b60006119d86032836117a9565b91506119e38261197c565b604082019050919050565b60006020820190508181036000830152611a07816119cb565b9050919050565b7f4e487b7100000000000000000000000000000000000000000000000000000000600052601160045260246000fd5b6000611a488261159c565b9150611a538361159c565b9250828202611a618161159c565b91508282048414831517611a7857611a77611a0e565b5b5092915050565b7f455243323056657374696e673a20416d6f756e7420766573746564206578636560008201527f656473206d6178696d756d2e0000000000000000000000000000000000000000602082015250565b6000611adb602c836117a9565b9150611ae682611a7f565b604082019050919050565b60006020820190508181036000830152611b0a81611ace565b9050919050565b6000611b1c8261159c565b9150611b278361159c565b9250828201905080821115611b3f57611b3e611a0e565b5b92915050565b7f455243323056657374696e673a2056657374696e6720656e647320746f6f207360008201527f6f6f6e2e00000000000000000000000000000000000000000000000000000000602082015250565b6000611ba16024836117a9565b9150611bac82611b45565b604082019050919050565b60006020820190508181036000830152611bd081611b94565b9050919050565b7f455243323056657374696e673a205a65726f20616464726573732063616e6e6f60008201527f742062652062656e65666963696172792e000000000000000000000000000000602082015250565b6000611c336031836117a9565b9150611c3e82611bd7565b604082019050919050565b60006020820190508181036000830152611c6281611c26565b9050919050565b6000608082019050611c7e6000830187611749565b611c8b6020830186611749565b611c986040830185611749565b611ca56060830184611749565b95945050505050565b7f455243323056657374696e673a204e6f7468696e6720746f20636c61696d2e00600082015250565b6000611ce4601f836117a9565b9150611cef82611cae565b602082019050919050565b60006020820190508181036000830152611d1381611cd7565b9050919050565b7f455243323056657374696e673a20416c726561647920636c61696d656420657660008201527f6572797468696e672e0000000000000000000000000000000000000000000000602082015250565b6000611d766029836117a9565b9150611d8182611d1a565b604082019050919050565b60006020820190508181036000830152611da581611d69565b9050919050565b6000611db78261159c565b9150611dc28361159c565b9250828203905081811115611dda57611dd9611a0e565b5b92915050565b7f4f776e61626c653a206e6577206f776e657220697320746865207a65726f206160008201527f6464726573730000000000000000000000000000000000000000000000000000602082015250565b6000611e3c6026836117a9565b9150611e4782611de0565b604082019050919050565b60006020820190508181036000830152611e6b81611e2f565b9050919050565b7f4e487b7100000000000000000000000000000000000000000000000000000000600052603260045260246000fd5b7f4e487b7100000000000000000000000000000000000000000000000000000000600052601260045260246000fd5b6000611edb8261159c565b9150611ee68361159c565b925082611ef657611ef5611ea1565b5b828204905092915050565b6000611f0c8261159c565b91507fffffffffffffffffffffffffffffffffffffffffffffffffffffffffffffffff8203611f3e57611f3d611a0e565b5b600182019050919050565b7f5061757361626c653a2070617573656400000000000000000000000000000000600082015250565b6000611f7f6010836117a9565b9150611f8a82611f49565b602082019050919050565b60006020820190508181036000830152611fae81611f72565b9050919050565b7f5061757361626c653a206e6f7420706175736564000000000000000000000000600082015250565b6000611feb6014836117a9565b9150611ff682611fb5565b602082019050919050565b6000602082019050818103600083015261201a81611fde565b905091905056fea2646970667358221220f78b2bb2328a0a6cc9b2c8f5bfe1f9323e7df3741adfaac7f3bc591bbbe5739a64736f6c63430008110033",
  "devdoc": {
    "events": {
      "AllClaimed(address,uint256)": {
        "details": "Emitted when coins and bonusses are claimed in `claim`.",
        "params": {
          "amount": "Amount of coins that were claimed.",
          "beneficiary": "Address that received the coins and bonuses."
        }
      },
      "Vested(address,uint256,uint256,uint256,uint256)": {
        "details": "Emitted when a vesting schedule is created in `addClaim`.",
        "params": {
          "amount": "Amount of coins to be vested.",
          "beneficiary": "Address that receives the coins and bonuses.",
          "bonusAmount": "The bonus that becomes available during the vesting period.",
          "duration": "Duration in seconds of the vesting period.",
          "start": "Timestamp when the vesting starts."
        }
      }
    },
    "kind": "dev",
    "methods": {
      "addClaim(address,uint256,uint256,uint256,uint256)": {
        "details": "Accessible only by owner. Emits the `Vested` event.",
        "params": {
          "amount": "Amount of coins to be vested.",
          "beneficiary": "Address that receives the coins and bonuses.",
          "bonusAmount": "The bonus that becomes available during the vesting period.",
          "duration": "Duration in seconds of the vesting period.",
          "start": "Timestamp when the vesting starts."
        }
      },
      "claimAll(address)": {
        "details": "Accessible only by owner. Can be called many times. Reverts if nothing can be claimed. Transfers the claimable coins and bonuses to `account`. Emits the `AllClaimed` event.",
        "params": {
          "account": "Address that receives the coins and bonuses."
        }
      },
      "owner()": {
        "details": "Returns the address of the current owner."
      },
      "paused()": {
        "details": "Returns true if the contract is paused, and false otherwise."
      },
      "renounceOwnership()": {
        "details": "Leaves the contract without owner. It will not be possible to call `onlyOwner` functions anymore. Can only be called by the current owner. NOTE: Renouncing ownership will leave the contract without an owner, thereby removing any functionality that is only available to the owner."
      },
      "rescue()": {
        "details": "Accessible only by immutable `rescuer` defined at construction."
      },
      "totalsOf(address)": {
        "returns": {
          "_0": "Current statics about the vesting schedules of a beneficiary."
        }
      },
      "totalsOfAt(address,uint128)": {
        "returns": {
          "_0": "Statics about the vesting schedules of a beneficiary at a certain point in time. This allows to project the future state of the vesting schedules."
        }
      },
      "transferOwnership(address)": {
        "details": "Transfers ownership of the contract to a new account (`newOwner`). Can only be called by the current owner."
      }
    },
    "stateVariables": {
      "MIN_FUTURE_END": {
        "details": "Minimum days in the future that the vesting must end."
      },
      "allBonuses": {
        "details": "Total amount of bonuses that have or will become available (claimed or not) over all vestings."
      },
      "allTokensClaimed": {
        "details": "Total amount of tokens that have been claimed over all vestings."
      },
      "allTokensVested": {
        "details": "Total amount of tokens that are vested over all vestings."
      },
      "token": {
        "details": "The token must implement the ERC20 interface."
      }
    },
    "version": 1
  },
  "userdoc": {
    "kind": "user",
    "methods": {
      "addClaim(address,uint256,uint256,uint256,uint256)": {
        "notice": "Creates a new vesting schedule for a beneficiary."
      },
      "claimAll(address)": {
        "notice": "Claims (transfers) all currently free coins and claimable bonuses for a beneficiary."
      },
      "pause()": {
        "notice": "Pauses the contract. `addClaim` and `claimAll` cannot be called."
      },
      "rescue()": {
        "notice": "Rescues entire `token` balance from the contract."
      },
      "token()": {
        "notice": "The token that is being vested."
      }
    },
    "notice": "A token holder contract that releases its token balance according to a vesting schedule.",
    "version": 1
  },
  "storageLayout": {
    "storage": [
      {
        "astId": 593,
        "contract": "contracts/ERC20Vesting.sol:ERC20Vesting",
        "label": "_owner",
        "offset": 0,
        "slot": "0",
        "type": "t_address"
      },
      {
        "astId": 713,
        "contract": "contracts/ERC20Vesting.sol:ERC20Vesting",
        "label": "_paused",
        "offset": 20,
        "slot": "0",
        "type": "t_bool"
      },
      {
        "astId": 74,
        "contract": "contracts/ERC20Vesting.sol:ERC20Vesting",
        "label": "allTokensVested",
        "offset": 0,
        "slot": "1",
        "type": "t_uint256"
      },
      {
        "astId": 77,
        "contract": "contracts/ERC20Vesting.sol:ERC20Vesting",
        "label": "allBonuses",
        "offset": 0,
        "slot": "2",
        "type": "t_uint256"
      },
      {
        "astId": 80,
        "contract": "contracts/ERC20Vesting.sol:ERC20Vesting",
        "label": "allTokensClaimed",
        "offset": 0,
        "slot": "3",
        "type": "t_uint256"
      },
      {
        "astId": 86,
        "contract": "contracts/ERC20Vesting.sol:ERC20Vesting",
        "label": "_vestings",
        "offset": 0,
        "slot": "4",
        "type": "t_mapping(t_address,t_array(t_struct(Vesting)39_storage)dyn_storage)"
      },
      {
        "astId": 90,
        "contract": "contracts/ERC20Vesting.sol:ERC20Vesting",
        "label": "_bonusesClaimed",
        "offset": 0,
        "slot": "5",
        "type": "t_mapping(t_address,t_uint256)"
      },
      {
        "astId": 94,
        "contract": "contracts/ERC20Vesting.sol:ERC20Vesting",
        "label": "_coinsClaimed",
        "offset": 0,
        "slot": "6",
        "type": "t_mapping(t_address,t_uint256)"
      }
    ],
    "types": {
      "t_address": {
        "encoding": "inplace",
        "label": "address",
        "numberOfBytes": "20"
      },
      "t_array(t_struct(Vesting)39_storage)dyn_storage": {
        "base": "t_struct(Vesting)39_storage",
        "encoding": "dynamic_array",
        "label": "struct ERC20Vesting.Vesting[]",
        "numberOfBytes": "32"
      },
      "t_bool": {
        "encoding": "inplace",
        "label": "bool",
        "numberOfBytes": "1"
      },
      "t_mapping(t_address,t_array(t_struct(Vesting)39_storage)dyn_storage)": {
        "encoding": "mapping",
        "key": "t_address",
        "label": "mapping(address => struct ERC20Vesting.Vesting[])",
        "numberOfBytes": "32",
        "value": "t_array(t_struct(Vesting)39_storage)dyn_storage"
      },
      "t_mapping(t_address,t_uint256)": {
        "encoding": "mapping",
        "key": "t_address",
        "label": "mapping(address => uint256)",
        "numberOfBytes": "32",
        "value": "t_uint256"
      },
      "t_struct(Vesting)39_storage": {
        "encoding": "inplace",
        "label": "struct ERC20Vesting.Vesting",
        "members": [
          {
            "astId": 32,
            "contract": "contracts/ERC20Vesting.sol:ERC20Vesting",
            "label": "amount",
            "offset": 0,
            "slot": "0",
            "type": "t_uint256"
          },
          {
            "astId": 34,
            "contract": "contracts/ERC20Vesting.sol:ERC20Vesting",
            "label": "start",
            "offset": 0,
            "slot": "1",
            "type": "t_uint256"
          },
          {
            "astId": 36,
            "contract": "contracts/ERC20Vesting.sol:ERC20Vesting",
            "label": "duration",
            "offset": 0,
            "slot": "2",
            "type": "t_uint256"
          },
          {
            "astId": 38,
            "contract": "contracts/ERC20Vesting.sol:ERC20Vesting",
            "label": "bonusAmount",
            "offset": 0,
            "slot": "3",
            "type": "t_uint256"
          }
        ],
        "numberOfBytes": "128"
      },
      "t_uint256": {
        "encoding": "inplace",
        "label": "uint256",
        "numberOfBytes": "32"
      }
    }
  }
}